:100000000C942E000C94A8070C94A8070C94A80735
:100010000C94A8070C94A8070C94A8070C94A807A4
:100020000C94A8070C94A8070C94A8070C94A80794
:100030000C94A8070C94A8070C94A8070C94A80784
:100040000C94A8070C94A8070C94A8070C94A80774
:100050000C94A80700600078000F5E0011241FBEFA
:10006000CFE5D8E0DEBFCDBFE4E5F0E040E017C06B
:10007000B591A59135912591059107FD0CC09591FC
:100080008591EF01F92FE82F05900D92A217B30784
:10009000D9F7FE0104C01D92A217B307E1F7EB35B3
:1000A000F40731F70E945E000C949D07F894FFCF8F
:0B00B00043616C63756C61746F72003B
:1000BC000E946C020E949C0665E081E00E94010493
:1000CC0060EB70E080E00E946E072FEF83ED90E311
:1000DC00215080409040E1F700C0000081E00E9478
:1000EC006505812C912C612C712CC12CD12C212CCF
:1000FC00312CC0E0D0E000E010E0A12CB12CE12CC0
:10010C00F12C0CC01E017201C0E0D0E011E006C061
:10011C006E01012F5201C0E0D0E010E00E943F06BA
:10012C00482E512C2FEF42165104C1F39AE0491678
:10013C00510480F40E943007CE01880F991FCC0F18
:10014C00DD1FCC0FDD1FCC0FDD1FC80FD91FC40D59
:10015C00D51DE4CF2DE34216510409F474C09AE086
:10016C004916510408F46FC0111133C02BE242162A
:10017C00510479F028F42AE24216510491F0C2CFCE
:10018C009DE249165104A9F02FE242165104C9F020
:10019C00B9CF0E94D2051E017201C0E0D0E011E07F
:1001AC00BDCF0E94D2051E017201C0E0D0E011E06B
:1001BC00B5CF0E94D2051E017201C0E0D0E011E063
:1001CC00ADCF0E94D2051E017201C0E0D0E011E05B
:1001DC00A5CF113009F0A2CF9BE24916510479F05A
:1001EC0028F49AE24916510499F092CF2DE2421666
:1001FC005104B9F09FE249165104E1F089CF0E94F5
:10020C00D2056E01012F5201C0E0D0E010E086CF84
:10021C000E94D2056E01012F5201C0E0D0E010E027
:10022C007DCF0E94D2056E01012F5201C0E0D0E0BB
:10023C0010E074CF0E94D2056E01012F5201C0E074
:10024C00D0E010E06BCF2DE34216510409F066CFDD
:10025C00113009F041C001113FC00E94D2058BE260
:10026C00E816F10479F028F42AE2E216F10471F0B0
:10027C001EC08DE2E816F10489F09FE2E916F10444
:10028C0089F015C03E01620C731C11C0C29D300177
:10029C00C39D700CD29D700C112409C031016C1AD5
:1002AC007D0A05C0C101BE010E9489073B01862D54
:1002BC000E9430072FEF83ED90E321508040904057
:1002CC00E1F700C0000081E00E946505102F212C91
:1002DC00312CC0E0D0E022CF013009F01FCF11113A
:1002EC001DCF0E94D2052BE2A216B10489F028F48E
:1002FC009AE2A916B104D1F1D2C02DE2A216B10432
:10030C0009F474C08FE2A816B10409F49FC0C7C0E9
:10031C009BE2E916F10431F4C20DD31D46018C0E9B
:10032C009D1EBDC02DE2E216F10431F4C20DD31DA9
:10033C004E018C189D08B3C08FE2E816F10441F40D
:10034C00C101B6010E9489074E01860E971EA7C0F7
:10035C009AE2E916F10451F42C9C40012D9C900C6E
:10036C003C9C900C11248C0E9D1E99C02BE2E21625
:10037C00F10451F4CC9D4001CD9D900CDC9D900C72
:10038C001124820C931C8BC08DE2E816F10459F4F5
:10039C00CC9DC001CD9D900DDC9D900D1124410193
:1003AC00881A990A7CC09FE2E916F10461F4CC9D8D
:1003BC00B001CD9D700DDC9D700D1124C1010E940A
:1003CC0089074B016CC02AE2E216F10479F4CC9D4A
:1003DC00C001CD9D900DDC9D900D1124289E4001F7
:1003EC00299E900C389E900C112459C08BE2E81673
:1003FC00F10439F4C1018C0D9D1D4C018C1A9D0A20
:10040C004EC09DE2E916F10439F4C1018C199D0925
:10041C004C018C1A9D0A43C02FE2E216F10441F400
:10042C00C101B6010E9489074B018C1A9D0A37C085
:10043C008AE2E816F10451F42C9C40012D9C900C9E
:10044C003C9C900C11248C1A9D0A29C09BE2E91645
:10045C00F10441F4C601BE010E9489074101860ED8
:10046C00971E1DC02FE2E216F10451F4C101BE012A
:10047C000E948907CB01B6010E9489074B010FC06E
:10048C008AE2E816F10459F42C9CC0012D9C900DC5
:10049C003C9C900D1124BE010E9489074B01882DB4
:1004AC000E9430079FEF23ED80E391502040804065
:1004BC00E1F700C0000081E00E946505012FC12C0E
:0C04CC00D12C212C312CC0E0D0E028CE37
:1004D80085E49EE10197F1F700C0000041E063E088
:1004E80080E00E947F0441E062E080E00E947F0497
:1004F80041E060E081E00E947F0441E061E081E04A
:100508000E947F0441E062E081E00E947F0441E0B4
:1005180064E081E00E947F0440E060E081E00E94A6
:10052800F20441E061E081E00E94F20440E062E010
:1005380081E00E94F20440E064E081E00E94F2045D
:1005480041E062E080E00E94F20483EF91E00197CD
:10055800F1F700C0000040E062E080E00E94F20491
:1005680083EF91E00197F1F700C0000040E060E000
:1005780081E00E94F20441E061E081E00E94F2041F
:1005880040E062E081E00E94F20440E064E081E043
:100598000E94F20441E062E080E00E94F20483EFEE
:1005A80091E00197F1F700C0000040E062E080E0D0
:1005B8000E94F20483EF91E00197F1F700C0000078
:1005C80040E062E081E00E94F20441E064E081E002
:1005D8000E94F20441E062E080E00E94F20483EFAE
:1005E80091E00197F1F700C0000040E062E080E090
:1005F8000E94F20483EF91E00197F1F700C0000038
:1006080040E060E081E00E94F20440E061E081E0C7
:100618000E94F20440E062E081E00E94F20440E0BF
:1006280064E081E00E94F20441E062E080E00E9420
:10063800F20483EF91E00197F1F700C0000040E079
:1006480062E080E00E94F20483EF91E00197F1F705
:1006580000C0000040E060E081E00E94F20440E059
:1006680061E081E00E94F20441E062E081E00E94E2
:10067800F20441E064E081E00E94F20441E062E0BB
:1006880080E00E94F20483EF91E00197F1F700C047
:10069800000040E062E080E00E94F20483EF91E015
:1006A8000197F1F700C0000040E060E081E00E949F
:1006B800F20440E061E081E00E94F20440E062E080
:1006C80081E00E94F20440E064E081E00E94F204CC
:1006D80041E062E080E00E94F20483EF91E001973C
:1006E800F1F700C0000040E062E080E00E94F20400
:1006F80083EF91E00197F1F700C0000041E060E06E
:1007080081E00E94F20440E061E081E00E94F2048E
:1007180040E062E081E00E94F20440E064E081E0B1
:100728000E94F20441E062E080E00E94F20483EF5C
:1007380091E00197F1F700C0000040E062E080E03E
:100748000E94F20483EF91E00197F1F700C00000E6
:1007580040E060E081E00E94F20440E061E081E076
:100768000E94F20440E062E081E00E94F20440E06E
:1007780064E081E00E94F20441E062E080E00E94CF
:10078800F20483EF91E00197F1F700C0000040E028
:1007980062E080E00E94F20483EF91E00197F1F7B4
:1007A80000C0000041E060E081E00E94F20441E006
:1007B80061E081E00E94F20441E062E081E00E9491
:1007C800F20440E064E081E00E94F20441E062E06B
:1007D80080E00E94F20483EF91E00197F1F700C0F6
:1007E800000040E062E080E00E94F20483EF91E0C4
:0A07F8000197F1F700C0000008951A
:10080200CF93811103C0C0E8C60F10C0813019F424
:10081200C0ECC60F0BC0823019F4C4E9C60F06C083
:10082200833019F4C4EDC60F01C0C0E040E063E0BC
:1008320080E00E94F204C4FB442740F960E081E0BA
:100842000E94F204C5FB442740F961E081E00E9466
:10085200F204C6FB442740F962E081E00E94F20400
:1008620041E064E081E00E94F20441E062E080E065
:100872000E94F20489EF90E00197F1F700C00000B6
:1008820040E062E080E00E94F20489EF90E001978C
:10089200F1F700C000004C2F417060E081E00E943F
:1008A200F204C1FB442740F961E081E00E94F204B6
:1008B200C2FB442740F962E081E00E94F204C3FBDC
:1008C200442740F964E081E00E94F20441E062E0E2
:1008D20080E00E94F20489EF90E00197F1F700C0F6
:1008E200000040E062E080E00E94F20489EF90E0C4
:0C08F2000197F1F700C00000CF910895BD
:1008FE00683008F06FC0411138C0813091F028F097
:10090E008230D9F0833029F108952AB381E090E046
:10091E0002C0880F991F6A95E2F7809582238ABBE1
:10092E00089527B381E090E002C0880F991F6A9561
:10093E00E2F78095822387BB089524B381E090E08F
:10094E0002C0880F991F6A95E2F78095822384BBB7
:10095E00089521B381E090E002C0880F991F6A9537
:10096E00E2F78095822381BB0895413099F581305D
:10097E0089F028F08230C9F0833011F108952AB33E
:10098E0081E090E002C0880F991F6A95E2F7822BF2
:10099E008ABB089527B381E090E002C0880F991FAB
:1009AE006A95E2F7822B87BB089524B381E090E02D
:1009BE0002C0880F991F6A95E2F7822B84BB0895B7
:1009CE0021B381E090E002C0880F991F6A95E2F78B
:0609DE00822B81BB08958D
:1009E400683008F06FC0411138C0813091F028F0B0
:1009F4008230D9F0833029F108952BB381E090E05F
:100A040002C0880F991F6A95E2F7809582238BBBF9
:100A1400089528B381E090E002C0880F991F6A9579
:100A2400E2F78095822388BB089525B381E090E0A6
:100A340002C0880F991F6A95E2F78095822385BBCF
:100A4400089522B381E090E002C0880F991F6A954F
:100A5400E2F78095822382BB0895413099F5813075
:100A640089F028F08230C9F0833011F108952BB356
:100A740081E090E002C0880F991F6A95E2F7822B0B
:100A84008BBB089528B381E090E002C0880F991FC2
:100A94006A95E2F7822B88BB089525B381E090E044
:100AA40002C0880F991F6A95E2F7822B85BB0895CF
:100AB40022B381E090E002C0880F991F6A95E2F7A3
:060AC400822B82BB0895A5
:100ACA00CF93C82F40E063E080E00E94F204C4FBA9
:100ADA00442740F960E081E00E94F204C5FB442704
:100AEA0040F961E081E00E94F204C6FB442740F924
:100AFA0062E081E00E94F2044C2F441F4427441F05
:100B0A0064E081E00E94F20441E062E080E00E9439
:100B1A00F20489EF90E00197F1F700C0000040E08D
:100B2A0062E080E00E94F20489EF90E00197F1F719
:100B3A0000C000004C2F417060E081E00E94F20486
:100B4A00C1FB442740F961E081E00E94F204C2FB44
:100B5A00442740F962E081E00E94F204C3FB442783
:100B6A0040F964E081E00E94F20441E062E080E042
:100B7A000E94F20489EF90E00197F1F700C00000AB
:100B8A0040E062E080E00E94F20483EF91E0019786
:0A0B9A00F1F700C00000CF910895AC
:100BA400CF93C82F41E063E080E00E94F204C4FBCD
:100BB400442740F960E081E00E94F204C5FB442729
:100BC40040F961E081E00E94F204C6FB442740F949
:100BD40062E081E00E94F2044C2F441F4427441F2A
:100BE40064E081E00E94F20441E062E080E00E945F
:100BF400F20489EF90E00197F1F700C0000040E0B3
:100C040062E080E00E94F20489EF90E00197F1F73E
:100C140000C000004C2F417060E081E00E94F204AB
:100C2400C1FB442740F961E081E00E94F204C2FB69
:100C3400442740F962E081E00E94F204C3FB4427A8
:100C440040F964E081E00E94F20441E062E080E067
:100C54000E94F20489EF90E00197F1F700C00000D0
:100C640040E062E080E00E94F20489EF90E00197A6
:0A0C7400F1F700C00000CF910895D1
:100C7E00CF92DF92EF92FF920F931F93CF93DF935A
:100C8E000F92CDB7DEB700E042C0C02ED12CF601D8
:100C9E00EC58FF4F40E0608183E00E94F20410E0C8
:100CAE002BC0E12EF12CF701E059FF4FAE014F5F43
:100CBE005F4F608182E00E94ED06898181111BC029
:100CCE00C701880F991F880F991F805A9F4FFC01EB
:100CDE00EC0DFD1D10810AC0AE014F5F5F4FF70195
:100CEE00E059FF4F608182E00E94ED0699819923C1
:100CFE0099F3812F10C01F5F143098F2F601EC5853
:100D0E00FF4F41E0608183E00E94F2040F5F0430E8
:100D1E0008F4BBCF8FEF0F90DF91CF911F910F9102
:0A0D2E00FF90EF90DF90CF90089542
:100D380041E067E083E00E947F0441E066E083E0F1
:100D48000E947F0441E065E083E00E947F0441E067
:100D580063E083E00E947F0441E067E083E00E9453
:100D6800F20441E066E083E00E94F20441E065E0BD
:100D780083E00E94F20441E063E083E00E94F20411
:100D880040E065E082E00E947F0440E064E082E0A9
:100D98000E947F0440E063E082E00E947F0440E01C
:100DA80062E082E00E947F0441E065E082E00E9408
:100DB800F20441E064E082E00E94F20441E063E072
:100DC80082E00E94F20441E062E082E00E94F204C4
:020DD80008957C
:100DDA0041155105D1F16830D0F5813091F028F0F4
:100DEA008230D9F0833029F134C089B390E002C04F
:100DFA00959587956A95E2F78170FA01808380E07C
:100E0A00089586B390E002C0959587956A95E2F7B2
:100E1A008170FA01808380E0089583B390E002C074
:100E2A00959587956A95E2F78170FA01808380E04B
:100E3A00089580B390E002C0959587956A95E2F788
:100E4A008170FA01808380E0089581E0089581E04D
:060E5A00089580E00895F8
:100E60001F93CF93DF9300D000D0CDB7DEB710E053
:100E70001AC02DEC829F212D1124922F96959695C4
:100E80009695990F392F330F330F930F891BE1E09C
:100E9000F0E0EC0FFD1FE10FF11D8083822F86959E
:100EA000869586951F5F8111E4CF0EC0E12FF0E09B
:100EB000319781E090E08C0F9D1FE80FF91F808132
:100EC000805D0E94D20511501111F0CF0F900F904C
:0C0ED0000F900F90DF91CF911F910895BB
:100EDC00CF92DF92EF92CF936B01E82EC0E003C06C
:100EEC000E94D205CF5FAE2DC6018C0F911DA11DA6
:100EFC00FC018491A7FD80818111F2CFCF91EF90FD
:060F0C00DF90CF90089574
:100F1200AA1BBB1B51E107C0AA1FBB1FA617B7071D
:100F220010F0A61BB70B881F991F5A95A9F7809539
:080F32009095BC01CD0108956A
:100F3A00EC010E94AD070E94AC07CE010E94AE07E9
:060F4A00CE010E94AA077F
:040F50000C940000FD
:040F54000E945600A1
:020F58000895FA
:020F5A000895F8
:020F5C000895F6
:100F5E000708092F0405062A0102032D33003D2B35
:040F6E000504030271
:040F72000706050366
:00000001FF
