:100000000C942A000C94E2000C94E2000C94E200A0
:100010000C94E2000C94E2000C94E2000C94E200D8
:100020000C94E2000C94E2000C94E2000C94E200C8
:100030000C94E2000C94E2000C94E2000C94E200B8
:100040000C94E2000C94E2000C94E2000C94E200A8
:100050000C94E20011241FBECFE5D8E0DEBFCDBF77
:0C0060000E94A9000C94D700F894FFCF78
:10006C00683008F06FC0411138C0813091F028F031
:10007C008230D9F0833029F108952AB381E090E0E1
:10008C0002C0880F991F6A95E2F7809582238ABB7C
:10009C00089527B381E090E002C0880F991F6A95FC
:1000AC00E2F78095822387BB089524B381E090E02A
:1000BC0002C0880F991F6A95E2F78095822384BB52
:1000CC00089521B381E090E002C0880F991F6A95D2
:1000DC00E2F78095822381BB0895413099F58130F8
:1000EC0089F028F08230C9F0833011F108952AB3D9
:1000FC0081E090E002C0880F991F6A95E2F7822B8D
:10010C008ABB089527B381E090E002C0880F991F45
:10011C006A95E2F7822B87BB089524B381E090E0C7
:10012C0002C0880F991F6A95E2F7822B84BB089551
:10013C0021B381E090E002C0880F991F6A95E2F725
:06014C00822B81BB089527
:1001520041E066E081E00E94360041E060E081E03B
:100162000E94360041E061E081E00E94360041E0F9
:1001720062E081E00E94360041E064E081E00E949A
:0C018200360062E081E00E94C700FBCF65
:10018E00813041F028F0823039F0833039F0089513
:10019E006BBB089568BB089565BB089562BB089557
:1001AE00EC010E94E7000E94E600CE010E94E800EA
:0601BE00CE010E94E400E6
:0401C4000C94000097
:0401C8000E9434005D
:0201CC00089594
:0201CE00089592
:0201D000089590
:00000001FF
