:100000000C942D000C945D050C945D050C945D051D
:100010000C945D050C945D050C945D050C945D05D8
:100020000C945D050C945D050C9476040C949D0471
:100030000C945D050C945D050C945D050C945D05B8
:100040000C945D050C945D050C945D050C945D05A8
:100050000C945D0500600064800011241FBECFE594
:10006000D8E0DEBFCDBFE4E5F0E040E017C0B591D9
:10007000A59135912591059107FD0CC0959185912C
:10008000EF01F92FE82F05900D92A217B307D9F7CA
:10009000FE0104C01D92A217B307E1F7E935F4078A
:0E00A00031F70E94D7010C943D05F894FFCF74
:1000AE0054656D70203D20005370656564203D20C1
:0100BE000041
:1000C00085E49EE10197F1F700C0000040E060E0A8
:1000D00081E00E943F0341E061E081E00E943F0334
:1000E00040E062E081E00E943F0340E064E081E0A4
:1000F0000E943F0341E062E080E00E943F0383EF03
:1001000091E00197F1F700C0000040E062E080E07C
:100110000E943F0383EF91E00197F1F700C00000D8
:1001200040E060E081E00E943F0341E061E081E067
:100130000E943F0340E062E081E00E943F0340E014
:1001400064E081E00E943F0341E062E080E00E94C1
:100150003F0383EF91E00197F1F700C0000040E01A
:1001600062E080E00E943F0383EF91E00197F1F7A6
:1001700000C0000040E062E081E00E943F0341E0F7
:1001800064E081E00E943F0341E062E080E00E9481
:100190003F0383EF91E00197F1F700C0000040E0DA
:1001A00062E080E00E943F0383EF91E00197F1F766
:1001B00000C0000040E060E081E00E943F0340E0BA
:1001C00061E081E00E943F0340E062E081E00E9444
:1001D0003F0340E064E081E00E943F0341E062E0D1
:1001E00080E00E943F0383EF91E00197F1F700C0A8
:1001F000000040E062E080E00E943F0383EF91E076
:100200000197F1F700C0000040E060E081E00E944B
:100210003F0340E061E081E00E943F0341E062E093
:1002200081E00E943F0341E064E081E00E943F03DF
:1002300041E062E080E00E943F0383EF91E001979C
:10024000F1F700C0000040E062E080E00E943F0360
:1002500083EF91E00197F1F700C0000040E060E01B
:1002600081E00E943F0340E061E081E00E943F03A3
:1002700040E062E081E00E943F0340E064E081E012
:100280000E943F0341E062E080E00E943F0383EF71
:1002900091E00197F1F700C0000040E062E080E0EB
:1002A0000E943F0383EF91E00197F1F700C0000047
:1002B00041E060E081E00E943F0340E061E081E0D6
:1002C0000E943F0340E062E081E00E943F0340E083
:1002D00064E081E00E943F0341E062E080E00E9430
:1002E0003F0383EF91E00197F1F700C0000040E089
:1002F00062E080E00E943F0383EF91E00197F1F715
:1003000000C0000040E060E081E00E943F0340E068
:1003100061E081E00E943F0340E062E081E00E94F2
:100320003F0340E064E081E00E943F0341E062E07F
:1003300080E00E943F0383EF91E00197F1F700C056
:10034000000040E062E080E00E943F0383EF91E024
:100350000197F1F700C0000041E060E081E00E94F9
:100360003F0341E061E081E00E943F0341E062E041
:1003700081E00E943F0340E064E081E00E943F038F
:1003800041E062E080E00E943F0383EF91E001974B
:10039000F1F700C0000040E062E080E00E943F030F
:0E03A00083EF91E00197F1F700C0000008958F
:1003AE000E9425050E9460000E94FB040E944805E1
:1003BE000E94C4040E9455050E944F050E945905D3
:1003CE000E9432059C01A8E8B3E10E9416059B012C
:1003DE00AC01012E1AE056954795379527951A953B
:1003EE00D1F7102DADECBCEC0E941605EC01D695A4
:1003FE00C795D695C795D695C7951C2F60E080E01A
:10040E000E94C1026EEA70E080E00E94E00467E0A4
:10041E0080E00E94C102CE0199270E941F04CE31B6
:10042E00F8F460E081E00E94C10266EB70E080E0CB
:10043E000E94E00467E081E00E94C10280E090E04B
:10044E000E941F0440E060E083E00E943F0340E012
:10045E0061E083E00E943F0380E00E945F05ACCF25
:10046E008C2F8E518E31F8F460E081E00E94C10233
:10047E0066EB70E080E00E94E00467E081E00E949D
:10048E00C10289E190E00E941F0441E060E083E038
:10049E000E943F0340E061E083E00E943F0389E158
:1004AE000E945F0589CF8C2F8C538E31F8F460E05B
:1004BE0081E00E94C10266EB70E080E00E94E004E1
:1004CE0067E081E00E94C10282E390E00E941F0477
:1004DE0041E060E083E00E943F0340E061E083E0A2
:1004EE000E943F0382E30E945F0566CFCA55CE315C
:1004FE00F8F460E081E00E94C10266EB70E080E0FB
:10050E000E94E00467E081E00E94C1028BE490E06B
:10051E000E941F0441E060E083E00E943F0340E040
:10052E0061E083E00E943F038BE40E945F0544CFAD
:10053E00183708F441CF60E081E00E94C10266EBFB
:10054E0070E080E00E94E00467E081E00E94C1025A
:10055E0084E690E00E941F0441E060E083E00E9488
:10056E003F0340E061E083E00E943F0384E60E9487
:04057E005F0522CF24
:10058200CF93811103C0C0E8C60F10C0813019F4A7
:10059200C0ECC60F0BC0823019F4C4E9C60F06C006
:1005A200833019F4C4EDC60F01C0C0E040E063E03F
:1005B20080E00E943F03C4FB442740F960E081E0F1
:1005C2000E943F03C5FB442740F961E081E00E949D
:1005D2003F03C6FB442740F962E081E00E943F03EB
:1005E20041E064E081E00E943F0341E062E080E09C
:1005F2000E943F0389EF90E00197F1F700C00000ED
:1006020040E062E080E00E943F0389EF90E00197C2
:10061200F1F700C000004C2F417060E081E00E94C1
:100622003F03C1FB442740F961E081E00E943F03A0
:10063200C2FB442740F962E081E00E943F03C3FB12
:10064200442740F964E081E00E943F0341E062E018
:1006520080E00E943F0389EF90E00197F1F700C02C
:10066200000040E062E080E00E943F0389EF90E0FA
:0C0672000197F1F700C00000CF9108953F
:10067E00683008F06FC0411138C0813091F028F019
:10068E008230D9F0833029F108952BB381E090E0C8
:10069E0002C0880F991F6A95E2F7809582238BBB63
:1006AE00089528B381E090E002C0880F991F6A95E3
:1006BE00E2F78095822388BB089525B381E090E010
:1006CE0002C0880F991F6A95E2F78095822385BB39
:1006DE00089522B381E090E002C0880F991F6A95B9
:1006EE00E2F78095822382BB0895413099F58130DF
:1006FE0089F028F08230C9F0833011F108952BB3C0
:10070E0081E090E002C0880F991F6A95E2F7822B74
:10071E008BBB089528B381E090E002C0880F991F2B
:10072E006A95E2F7822B88BB089525B381E090E0AD
:10073E0002C0880F991F6A95E2F7822B85BB089538
:10074E0022B381E090E002C0880F991F6A95E2F70C
:06075E00822B82BB08950E
:10076400CF93C82F41E063E080E00E943F03C4FBC5
:10077400442740F960E081E00E943F03C5FB442721
:1007840040F961E081E00E943F03C6FB442740F941
:1007940062E081E00E943F034C2F441F4427441F22
:1007A40064E081E00E943F0341E062E080E00E9457
:1007B4003F0389EF90E00197F1F700C0000040E0AB
:1007C40062E080E00E943F0389EF90E00197F1F737
:1007D40000C000004C2F417060E081E00E943F03A4
:1007E400C1FB442740F961E081E00E943F03C2FB62
:1007F400442740F962E081E00E943F03C3FB4427A1
:1008040040F964E081E00E943F0341E062E080E05F
:100814000E943F0389EF90E00197F1F700C00000C8
:1008240040E062E080E00E943F0389EF90E001979E
:0A083400F1F700C00000CF91089515
:10083E001F93CF93DF9300D000D0CDB7DEB7AC01BE
:10084E00892B81F580E30E94B20341C09A01ADEC81
:10085E00BCEC0E941605969587959695879596956C
:10086E0087959C01220F331F880F991F880F991FA0
:10087E00880F991F820F931F9A01281B390BE1E0F5
:10088E00F0E0EC0FFD1FE10FF11D20839A010E9495
:10089E001605AC015695479556954795569547952D
:1008AE001F5F01C010E04115510581F60EC0E12F0A
:1008BE00F0E0319781E090E08C0F9D1FE80FF91F5B
:1008CE008081805D0E94B20311501111F0CF0F9004
:0E08DE000F900F900F90DF91CF911F91089512
:1008EC001F920F920FB60F9211242F933F934F9399
:1008FC005F936F937F938F939F93AF93BF93EF937C
:10090C00FF93E0916200F09163000995FF91EF91E4
:10091C00BF91AF919F918F917F916F915F914F910B
:0E092C003F912F910F900FBE0F901F901895C6
:10093A001F920F920FB60F9211242F933F934F934A
:10094A005F936F937F938F939F93AF93BF93EF932D
:10095A00FF93E0916000F09161000995FF91EF919A
:10096A00BF91AF919F918F917F916F915F914F91BD
:0E097A003F912F910F900FBE0F901F90189578
:1009880087B1806487B987B18F7787B987B18F7D41
:1009980087B987B1887F87B987B1836087B986B1FE
:1009A8008F7786B986B18F7D86B986B1806186B921
:0809B80086B1877F86B908951E
:1009C000CF92DF92EF92CF936B01E82EC0E003C08D
:1009D0000E94B203CF5FAE2DC6018C0F911DA11DE9
:1009E000FC018491A7FD80818111F2CFCF91EF901E
:0609F000DF90CF90089596
:1009F60083B7806483BF83B7886083BF83B7887FEC
:100A060083BF83B7826083BF12BE1CBE89B78E7F49
:100A160089BF89B78D7F89BF88B78D7F88BF88B723
:060A26008E7F88BF0895D9
:100A2C00A29FB001B39FC001A39F700D811D112423
:0E0A3C00911DB29F700D811D1124911D089512
:100A4A008DE08ABB8FE187BB14BA83E281BB1BBAF4
:0A0A5A0088E088BB15BA12BA0895AF
:100A64000E945905349BFECF24B135B196B19061F3
:060A740096B9C9010895C6
:100A7A00EC010E9464050E946305CE010E9465058F
:060A8A00CE010E9461058F
:0E0A900083B78F7E83BF83B7806283BF0895D4
:0C0A9E0087B1807E87B987B187B90895C1
:080AAA0086B1806886B9089549
:080AB20086B1806486B9089545
:040ABA000C94000098
:040ABE008CBF08954C
:040AC2000E94550039
:020AC600089591
:020AC80008958F
:020ACA0008958D
:00000001FF
