:100000000C942A000C9466040C9466040C94660408
:100010000C9466040C9466040C9466040C946604B8
:100020000C9466040C9466040C9466040C946604A8
:100030000C9466040C9466040C9466040C94660498
:100040000C9466040C9466040C9466040C94660488
:100050000C94660411241FBECFE5D8E0DEBFCDBFEF
:0C0060000E944F030C945404F894FFCF4E
:10006C0085E49EE10197F1F700C0000040E060E0FC
:10007C0081E00E942B0241E061E081E00E942B02B2
:10008C0040E062E081E00E942B0240E063E081E00E
:10009C000E942B0241E062E080E00E942B0283EF81
:1000AC0091E00197F1F700C0000040E062E080E0D1
:1000BC000E942B0283EF91E00197F1F700C0000042
:1000CC0040E060E081E00E942B0241E061E081E0D1
:1000DC000E942B0240E062E081E00E942B0240E093
:1000EC0063E081E00E942B0241E062E080E00E942C
:1000FC002B0283EF91E00197F1F700C0000040E084
:10010C0062E080E00E942B0283EF91E00197F1F70F
:10011C0000C0000040E062E081E00E942B0241E060
:10012C0063E081E00E942B0241E062E080E00E94EB
:10013C002B0283EF91E00197F1F700C0000040E043
:10014C0062E080E00E942B0283EF91E00197F1F7CF
:10015C0000C0000040E060E081E00E942B0240E023
:10016C0061E081E00E942B0240E062E081E00E94AD
:10017C002B0240E063E081E00E942B0241E062E050
:10018C0080E00E942B0283EF91E00197F1F700C011
:10019C00000040E062E080E00E942B0283EF91E0DF
:1001AC000197F1F700C0000040E060E081E00E94A0
:1001BC002B0240E061E081E00E942B0241E062E012
:1001CC0081E00E942B0241E063E081E00E942B025F
:1001DC0041E062E080E00E942B0283EF91E0019706
:1001EC00F1F700C0000040E062E080E00E942B02CA
:1001FC0083EF91E00197F1F700C0000040E060E070
:10020C0081E00E942B0240E061E081E00E942B0221
:10021C0040E062E081E00E942B0240E063E081E07C
:10022C000E942B0241E062E080E00E942B0283EFEF
:10023C0091E00197F1F700C0000040E062E080E03F
:10024C000E942B0283EF91E00197F1F700C00000B0
:10025C0041E060E081E00E942B0240E061E081E03F
:10026C000E942B0240E062E081E00E942B0240E001
:10027C0063E081E00E942B0241E062E080E00E949A
:10028C002B0283EF91E00197F1F700C0000040E0F2
:10029C0062E080E00E942B0283EF91E00197F1F77E
:1002AC0000C0000040E060E081E00E942B0240E0D2
:1002BC0061E081E00E942B0240E062E081E00E945C
:1002CC002B0240E063E081E00E942B0241E062E0FF
:1002DC0080E00E942B0283EF91E00197F1F700C0C0
:1002EC00000040E062E080E00E942B0283EF91E08E
:1002FC000197F1F700C0000041E060E081E00E944E
:10030C002B0241E061E081E00E942B0241E062E0BF
:10031C0081E00E942B0240E063E081E00E942B020E
:10032C0041E062E080E00E942B0283EF91E00197B4
:10033C00F1F700C0000040E062E080E00E942B0278
:0E034C0083EF91E00197F1F700C000000895E3
:10035A00CF93811103C0C0E8C60F10C0813019F4D1
:10036A00C0ECC60F0BC0823019F4C4E9C60F06C030
:10037A00833019F4C4EDC60F01C0C0E040E063E069
:10038A0080E00E942B02C4FB442740F960E081E030
:10039A000E942B02C5FB442740F961E081E00E94DC
:1003AA002B02C6FB442740F962E081E00E942B023F
:1003BA0041E063E081E00E942B0241E062E080E0DC
:1003CA000E942B0289EF90E00197F1F700C000002C
:1003DA0040E062E080E00E942B0289EF90E0019702
:1003EA00F1F700C000004C2F417060E081E00E94EC
:1003FA002B02C1FB442740F961E081E00E942B02F5
:10040A00C2FB442740F962E081E00E942B02C3FB51
:10041A00442740F963E081E00E942B0241E062E058
:10042A0080E00E942B0289EF90E00197F1F700C06B
:10043A00000040E062E080E00E942B0289EF90E039
:0C044A000197F1F700C00000CF91089569
:10045600683008F06FC0411138C0813091F028F043
:100466008230D9F0833029F108952BB381E090E0F2
:1004760002C0880F991F6A95E2F7809582238BBB8D
:10048600089528B381E090E002C0880F991F6A950D
:10049600E2F78095822388BB089525B381E090E03A
:1004A60002C0880F991F6A95E2F78095822385BB63
:1004B600089522B381E090E002C0880F991F6A95E3
:1004C600E2F78095822382BB0895413099F5813009
:1004D60089F028F08230C9F0833011F108952BB3EA
:1004E60081E090E002C0880F991F6A95E2F7822B9F
:1004F6008BBB089528B381E090E002C0880F991F56
:100506006A95E2F7822B88BB089525B381E090E0D7
:1005160002C0880F991F6A95E2F7822B85BB089562
:1005260022B381E090E002C0880F991F6A95E2F736
:06053600822B82BB089538
:10053C00CF93C82F41E063E080E00E942B02C4FB04
:10054C00442740F960E081E00E942B02C5FB442760
:10055C0040F961E081E00E942B02C6FB442740F980
:10056C0062E081E00E942B024C2F441F4427441F61
:10057C0063E081E00E942B0241E062E080E00E9497
:10058C002B0289EF90E00197F1F700C0000040E0EA
:10059C0062E080E00E942B0289EF90E00197F1F776
:1005AC0000C000004C2F417060E081E00E942B02E3
:1005BC00C1FB442740F961E081E00E942B02C2FBA1
:1005CC00442740F962E081E00E942B02C3FB4427E0
:1005DC0040F963E081E00E942B0241E062E080E0A0
:1005EC000E942B0289EF90E00197F1F700C0000008
:1005FC0040E062E080E00E942B0289EF90E00197DE
:0A060C00F1F700C00000CF9108953F
:100616001F93CF93DF9300D000D0CDB7DEB7811103
:100626001FC080E30E949E022FC02DEC829F212DC9
:100636001124922F969596959695990F392F330FEB
:10064600330F930F891BE1E0F0E0EC0FFD1FE10F84
:10065600F11D8083822F8695869586951F5F01C042
:1006660010E08111E2CF0EC0E12FF0E0319781E07A
:1006760090E08C0F9D1FE80FF91F8081805D0E941E
:100686009E0211501111F0CF0F900F900F900F9006
:08069600DF91CF911F9108953F
:10069E00CF93DF930F92CDB7DEB7198280E00E9421
:1006AE00F5030E9447040E94360065E580E090E065
:1006BE000E949B038FE19EE40197F1F700C00000BA
:1006CE00BE016F5F7F4F80E090E00E947A0360E092
:1006DE0080E00E94AD0189810E940B03698183E055
:0606EE000E942804FFCF6A
:1006F4000F931F93CF93DF93D82FC92F8B010E94A1
:100704000604C0658C2F0E94B5038D2F0E94380407
:100714000E9417048C2F0E94CB03C8010E94E1039E
:10072400C82F0E945F048C2FDF91CF911F910F91EE
:02073400089526
:100736001F93CF93DF93D82F192FC62F0E9406043D
:10074600812F80650E94B5038D2F0E9438048C2F5F
:100756000E943804C82F0E945F048C2FDF91CF912E
:040766001F91089542
:10076A00880F83B983B18E7F83B986B78F7D86BFA1
:10077A0086B7806886BF06B607FEFDCF81B1887F3F
:0C078A00883111F480E0089583E00895A8
:10079600880F83B983B1816083B986B78F7D86BFA1
:1007A60086B7806886BF06B607FEFDCF81B1887F13
:0C07B600803411F480E0089584E0089580
:1007C200FC0196B7906496BF96B7906896BF06B63E
:1007D20007FEFDCF91B1987F903521F483B18083DC
:0807E20080E0089586E008950F
:1007EA0092E090B991B19E7F91B991B19D7F91B9F3
:1007FA00880F82B986B7846086BF86B7806486BF51
:02080A0008954F
:10080C0086B7806286BF86B7806886BF06B607FE4D
:10081C00FDCF81B1887F883011F480E0089581E0AC
:02082C0008952D
:10082E0086B7806286BF86B7806886BF06B607FE2B
:10083E00FDCF81B1887F803111F480E0089582E090
:02084E0008950B
:10085000813041F028F0823039F0833039F008954A
:100860006BBB089568BB089565BB089562BB08958E
:1008700083B986B7806886BF06B607FEFDCF81B113
:0E088000887F883211F480E0089585E00895A5
:10088E008CE08ABB8FE087BB83E084BB8FEF81BB9C
:0A089E001BBA18BA15BA12BA089571
:1008A800EC010E946B040E946A04CE010E946C0451
:0608B800CE010E9468045D
:0E08BE0086B7806186BF86B7806886BF0895C2
:0408CC000C94000088
:0408D0000E9434004E
:0208D400089585
:0208D600089583
:0208D800089581
:00000001FF
