:100000000C942D000C94F5000C941C010C944301ED
:100010000C9433020C9433020C9433020C946A0156
:100020000C9433020C9433020C9433020C9433027C
:100030000C9433020C9433020C9433020C9433026C
:100040000C9433020C9433020C9433020C9433025C
:100050000C9433020060006F800011241FBECFE5B6
:10006000D8E0DEBFCDBFE4E5F0E040E017C0B591D9
:10007000A59135912591059107FD0CC0959185912C
:10008000EF01F92FE82F05900D92A217B307D9F7CA
:10009000FE0104C01D92A217B307E1F7E935F4078A
:0E00A00031F70E9493000C94E201F894FFCF18
:1000AE00E0E6F0E080818F5F80838A3051F4108229
:1000BE0081818F5F8183863021F4118282818F5FEF
:1000CE008283809162008A3061F4E0E6F0E0128271
:1000DE0083818F5F8383863021F4138284818F5FC7
:1000EE008483809164008A30B1F4E0E6F0E01482FB
:1000FE0085818F5F85838A3071F406C0FC01E05ADA
:10010E00FF4F1082019602C080E090E0863091058C
:08011E00ACF31DBC1CBC0895EC
:100126000E94BB010E9428020E94D5018DEA91E03F
:100136000E9408020E9420020E94C80187EF91E0F7
:100146000E940D020E941C020E94ED0181E092E0D5
:100156000E9412020E9424020E94C40085E89EE1C9
:100166000E9430028CE292E00E9417020E949101E6
:10017600809166008130D1F70E9457001092660088
:02018600F5CFB3
:100188008FB58E7F8FBD8FB58D7F8FBD8EB5886003
:100198008EBD8EB58F7E8EBD8EB5887F8EBD8EB599
:1001A80085608EBD1DBC1CBC1BBC1ABC17BC16BC14
:1001B80089B78B7F89BF89B7877F89BF89B78F7DCB
:1001C80089BF89B7806189BF88B7846088BF88B7CD
:1001D800886088BF88B7806188BF88B7806288BF19
:0201E800089578
:1001EA001F920F920FB60F9211242F933F934F93A2
:1001FA005F936F937F938F939F93AF93BF93EF9385
:10020A00FF93E0916B00F0916C000995FF91EF91DB
:10021A00BF91AF919F918F917F916F915F914F9114
:0E022A003F912F910F900FBE0F901F901895CF
:100238001F920F920FB60F9211242F933F934F9353
:100248005F936F937F938F939F93AF93BF93EF9336
:10025800FF93E0916900F0916A000995FF91EF9191
:10026800BF91AF919F918F917F916F915F914F91C6
:0E0278003F912F910F900FBE0F901F90189581
:100286001F920F920FB60F9211242F933F934F9305
:100296005F936F937F938F939F93AF93BF93EF93E8
:1002A600FF93E0916700F09168000995FF91EF9147
:1002B600BF91AF919F918F917F916F915F914F9178
:0E02C6003F912F910F900FBE0F901F90189533
:1002D4001F920F920FB60F9211242F933F934F93B7
:1002E4005F936F937F938F939F93AF93BF93EF939A
:1002F400FF93E0916D00F0916E000995FF91EF91ED
:10030400BF91AF919F918F917F916F915F914F9129
:0E0314003F912F910F900FBE0F901F901895E4
:1003220080E090E015C021E030E0082E02C0220FEC
:10033200331F0A94E2F72BBBFC01E05AFF4F2081E6
:1003420025BBE1EEF4E03197F1F700C00000019621
:080352008630910544F3089583
:10035A0080E090E005C0FC01E05AFF4F1082019650
:0C036A0086309105C4F31DBC1CBC089536
:100376008FE38ABB17BA8FE084BB11BA1BBA84E03D
:0A03860088BB15BA8CE082BB089515
:1003900085B7886085BF85B78B7F85BF8BB78F7723
:0A03A0008BBF8AB780688ABF0895FA
:1003AA0085B7826085BF85B78E7F85BF8BB78F7B08
:0A03BA008BBF8AB780648ABF0895E4
:1003C400EC010E9438020E943702CE010E943902D9
:0603D400CE010E9435027B
:1003DA0084B78F7B84BF8BB78F7D8BBF8AB78062D0
:0403EA008ABF089529
:1003EE008EB58E7F8EBD8EB58D7F8EBD8EB58B7F7D
:0403FE008EBD089513
:0E0402008EB581608EBD8EB584608EBD08956E
:0A04100090936C0080936B00089538
:0A041A0090936A0080936900089532
:0A042400909368008093670008952C
:0A042E0090936E0080936D00089516
:080438008BB780688BBF0895AB
:080440008BB780648BBF0895A7
:080448008BB780628BBF0895A1
:080450008FB780688FBF08958B
:0804580081E080936600089525
:060460009BBD8ABD08955A
:040466000C940000F2
:04046A000E94550097
:02046E000895EF
:020470000895ED
:020472000895EB
:00000001FF
