:100000000C942D000C9435050C9435050C94350595
:100010000C9435050C9435050C9451040C9435055D
:100020000C9435050C9435050C9435050C94350568
:100030000C9435050C9435050C9435050C94350558
:100040000C9435050C9435050C9435050C94350548
:100050000C94350500600062800011241FBECFE5BE
:10006000D8E0DEBFCDBFE4E5F0E040E017C0B591D9
:10007000A59135912591059107FD0CC0959185912C
:10008000EF01F92FE82F05900D92A217B307D9F7CA
:10009000FE0104C01D92A217B307E1F7E935F4078A
:0E00A00031F70E94D0030C940E05F894FFCFA8
:1000AE0085E49EE10197F1F700C0000040E060E0BA
:1000BE0081E00E944C0241E061E081E00E944C022E
:1000CE0040E062E081E00E944C0240E064E081E0AA
:1000DE000E944C0241E062E080E00E944C0283EFFD
:1000EE0091E00197F1F700C0000040E062E080E08F
:1000FE000E944C0283EF91E00197F1F700C00000DF
:10010E0040E060E081E00E944C0241E061E081E06D
:10011E000E944C0240E062E081E00E944C0240E00E
:10012E0064E081E00E944C0241E062E080E00E94C7
:10013E004C0283EF91E00197F1F700C0000040E020
:10014E0062E080E00E944C0283EF91E00197F1F7AC
:10015E0000C0000040E062E081E00E944C0241E0FD
:10016E0064E081E00E944C0241E062E080E00E9487
:10017E004C0283EF91E00197F1F700C0000040E0E0
:10018E0062E080E00E944C0283EF91E00197F1F76C
:10019E0000C0000040E060E081E00E944C0240E0C0
:1001AE0061E081E00E944C0240E062E081E00E944A
:1001BE004C0240E064E081E00E944C0241E062E0CB
:1001CE0080E00E944C0283EF91E00197F1F700C0AE
:1001DE00000040E062E080E00E944C0283EF91E07C
:1001EE000197F1F700C0000040E060E081E00E945E
:1001FE004C0240E061E081E00E944C0241E062E08E
:10020E0081E00E944C0241E064E081E00E944C02D9
:10021E0041E062E080E00E944C0283EF91E00197A2
:10022E00F1F700C0000040E062E080E00E944C0266
:10023E0083EF91E00197F1F700C0000040E060E02D
:10024E0081E00E944C0240E061E081E00E944C029D
:10025E0040E062E081E00E944C0240E064E081E018
:10026E000E944C0241E062E080E00E944C0283EF6B
:10027E0091E00197F1F700C0000040E062E080E0FD
:10028E000E944C0283EF91E00197F1F700C000004D
:10029E0041E060E081E00E944C0240E061E081E0DC
:1002AE000E944C0240E062E081E00E944C0240E07D
:1002BE0064E081E00E944C0241E062E080E00E9436
:1002CE004C0283EF91E00197F1F700C0000040E08F
:1002DE0062E080E00E944C0283EF91E00197F1F71B
:1002EE0000C0000040E060E081E00E944C0240E06F
:1002FE0061E081E00E944C0240E062E081E00E94F9
:10030E004C0240E064E081E00E944C0241E062E079
:10031E0080E00E944C0283EF91E00197F1F700C05C
:10032E00000040E062E080E00E944C0283EF91E02A
:10033E000197F1F700C0000041E060E081E00E940B
:10034E004C0241E061E081E00E944C0241E062E03B
:10035E0081E00E944C0240E064E081E00E944C0289
:10036E0041E062E080E00E944C0283EF91E0019751
:10037E00F1F700C0000040E062E080E00E944C0215
:0E038E0083EF91E00197F1F700C000000895A1
:10039C00CF93811103C0C0E8C60F10C0813019F48F
:1003AC00C0ECC60F0BC0823019F4C4E9C60F06C0EE
:1003BC00833019F4C4EDC60F01C0C0E040E063E027
:1003CC0080E00E944C02C4FB442740F960E081E0CD
:1003DC000E944C02C5FB442740F961E081E00E9479
:1003EC004C02C6FB442740F962E081E00E944C02BB
:1003FC0041E064E081E00E944C0241E062E080E078
:10040C000E944C0289EF90E00197F1F700C00000C8
:10041C0040E062E080E00E944C0289EF90E001979E
:10042C00F1F700C000004C2F417060E081E00E94A9
:10043C004C02C1FB442740F961E081E00E944C0270
:10044C00C2FB442740F962E081E00E944C02C3FBEE
:10045C00442740F964E081E00E944C0241E062E0F4
:10046C0080E00E944C0289EF90E00197F1F700C008
:10047C00000040E062E080E00E944C0289EF90E0D6
:0C048C000197F1F700C00000CF91089527
:10049800683008F06FC0411138C0813091F028F001
:1004A8008230D9F0833029F108952BB381E090E0B0
:1004B80002C0880F991F6A95E2F7809582238BBB4B
:1004C800089528B381E090E002C0880F991F6A95CB
:1004D800E2F78095822388BB089525B381E090E0F8
:1004E80002C0880F991F6A95E2F78095822385BB21
:1004F800089522B381E090E002C0880F991F6A95A1
:10050800E2F78095822382BB0895413099F58130C6
:1005180089F028F08230C9F0833011F108952BB3A7
:1005280081E090E002C0880F991F6A95E2F7822B5C
:100538008BBB089528B381E090E002C0880F991F13
:100548006A95E2F7822B88BB089525B381E090E095
:1005580002C0880F991F6A95E2F7822B85BB089520
:1005680022B381E090E002C0880F991F6A95E2F7F4
:06057800822B82BB0895F6
:10057E00CF93C82F41E063E080E00E944C02C4FBA1
:10058E00442740F960E081E00E944C02C5FB4427FD
:10059E0040F961E081E00E944C02C6FB442740F91D
:1005AE0062E081E00E944C024C2F441F4427441FFE
:1005BE0064E081E00E944C0241E062E080E00E9433
:1005CE004C0289EF90E00197F1F700C0000040E087
:1005DE0062E080E00E944C0289EF90E00197F1F713
:1005EE0000C000004C2F417060E081E00E944C0280
:1005FE00C1FB442740F961E081E00E944C02C2FB3E
:10060E00442740F962E081E00E944C02C3FB44277C
:10061E0040F964E081E00E944C0241E062E080E03B
:10062E000E944C0289EF90E00197F1F700C00000A4
:10063E0040E062E080E00E944C0289EF90E001977A
:0A064E00F1F700C00000CF910895FD
:100658001F93CF93DF9300D000D0CDB7DEB7AC01A6
:10066800892B81F580E30E94BF0241C09A01ADEC5D
:10067800BCEC0E94DD04969587959695879596958E
:1006880087959C01220F331F880F991F880F991F88
:10069800880F991F820F931F9A01281B390BE1E0DD
:1006A800F0E0EC0FFD1FE10FF11D20839A010E947D
:1006B800DD04AC015695479556954795569547954F
:1006C8001F5F01C010E04115510581F60EC0E12FF2
:1006D800F0E0319781E090E08C0F9D1FE80FF91F43
:1006E8008081805D0E94BF0211501111F0CF0F90E0
:0E06F8000F900F900F90DF91CF911F910895FA
:100706004F925F926F927F92AF92BF92CF92DF929B
:10071600EF92FF920F931F93CF93DF9300D000D0F9
:10072600CDB7DEB72B013C0129833A834B835C832B
:100736008D899E89AF89B88D9C01AD012419350933
:1007460046095709C601B5016E197F09800B910B41
:100756000E94CD0429813A814B815C812419350997
:10076600460957090E94B604C801B701620F731FF4
:10077600841F951F0F900F900F900F90DF91CF91D0
:100786001F910F91FF90EF90DF90CF90BF90AF90A9
:0A0796007F906F905F904F900895E0
:1007A0000E94EC040E9457000E94170480E29EE41D
:1007B0000E9432050E949A040E9427050E9421058A
:1007C0000E942B050E94F804EC011F921F929F9338
:1007D0008F930F2EF0EDAF2EF7E0BF2EC12CD12C52
:1007E000F02D18EEE12E13E0F12E00E010E02FEFD7
:1007F00033E040E050E060E070E0CB010E94830312
:100800000F900F900F900F906B017C0160E080E0E3
:100810000E94CE01CE010E942C03C6010E942F052A
:0E0820008FE19EE40197F1F700C00000C7CF02
:10082E008FB58E7F8FBD8FB582608FBD8EB5886080
:10083E008EBD8EB580618EBD8FB580688FBD8FB534
:10084E008F7B8FBD8EB58E7F8EBD8EB582608EBD39
:10085E008EB58B7F8EBD1DBC1CBC1BBC1ABC17BCC1
:10086E0016BC89B78B7F89BF89B78F7E89BF89B741
:10087E00877F89BF89B78F7D89BF88B78B7F88BFF8
:10088E0088B7877F88BF88B78F7E88BF88B78F7DF0
:04089E0088BF089572
:1008A2001F920F920FB60F9211242F933F934F93E3
:1008B2005F936F937F938F939F93AF93BF93EF93C6
:1008C200FF93E0916000F09161000995FF91EF9133
:1008D200BF91AF919F918F917F916F915F914F9156
:0E08E2003F912F910F900FBE0F901F90189511
:1008F000A1E21A2EAA1BBB1BFD010DC0AA1FBB1F24
:10090000EE1FFF1FA217B307E407F50720F0A21B95
:10091000B30BE40BF50B661F771F881F991F1A9402
:1009200069F760957095809590959B01AC01BD012C
:04093000CF01089556
:1009340087B1806487B987B18F7787B987B18F7D95
:1009440087B987B1887F87B987B1836087B986B152
:100954008F7786B986B18F7D86B986B1806186B975
:0809640086B1877F86B9089572
:10096C00052E97FB1EF400940E94190557FD07D025
:10097C000E94780407FC03D04EF40C941905509592
:0E098C004095309521953F4F4F4F5F4F089596
:10099A00DB018F939F930E940305BF91AF91A29FA2
:1009AA00800D911DA39F900DB29F900D1124089563
:1009BA00A29FB001B39FC001A39F700D811D112496
:0E09CA00911DB29F700D811D1124911D089585
:1009D8008EE08ABB8FE187BB14BA80E281BB1BBA69
:0809E80018BA15BA12BA0895FD
:1009F0000E942B05349BFECF24B135B196B1906196
:060A000096B9C90108953A
:100A06000E94DD04A59F900DB49F900DA49F800DBC
:060A1600911D112408955A
:100A1C00EC010E943A050E943905CE010E943B056B
:060A2C00CE010E94370517
:100A320090958095709561957F4F8F4F9F4F089548
:0C0A420087B1807E87B987B187B908951D
:080A4E0086B1806886B90895A5
:080A560086B1806486B90895A1
:060A5E009BBD8ABD089556
:060A640097BD86BD089558
:040A6A000C940000E8
:040A6E000E9455008D
:020A72000895E5
:020A74000895E3
:020A76000895E1
:00000001FF
