:100000000C942E000C9405080C9405080C9405081B
:100010000C9405080C9405080C9405080C9405082C
:100020000C9405080C9405080C9405080C9405081C
:100030000C9405080C9405080C9405080C9405080C
:100040000C9405080C9405080C9405080C940508FC
:100050000C940508006000780010180011241FBEE1
:10006000CFE5D8E0DEBFCDBFE4E5F0E040E017C06B
:10007000B591A59135912591059107FD0CC09591FC
:100080008591EF01F92FE82F05900D92A217B30784
:10009000D9F7FE0104C01D92A217B307E1F7EB35B3
:1000A000F40731F70E945E000C94FA07F894FFCF32
:0B00B00043616C63756C61746F72003B
:1000BC00CF93DF93CDB7DEB7A8970FB6F894DEBF1A
:1000CC000FBECDBF0E94A1020E94280765E081E00F
:1000DC000E94360460EB70E080E00E94BC072FEFBA
:1000EC0033ED80E3215030408040E1F700C0000048
:1000FC0081E00E949A05E12CF12CB12C00E0912CAE
:10010C00A12C0E947406182F8F3FD9F38A3008F562
:10011C00C82ED12CC6010E94D106EB2DF0E0EE0FBB
:10012C00FF1F21E030E02C0F3D1FE20FF31F8081F9
:10013C0091819C01220F331F880F991F880F991FE3
:10014C00880F991F820F931F8C0D9D1D91838083A7
:10015C00EBC18B3239F08D3229F08A3219F08F32A3
:10016C0009F041C001111EC01B3249F018F41A32BB
:10017C0051F014C01D3259F01F3269F00FC0812F9D
:10018C000E9407060BC0812F0E94070607C0812F13
:10019C000E94070603C0812F0E940706B394A12E6C
:1001AC0001E0C2C1013009F0BFC11B3249F018F4A3
:1001BC001A3251F014C01D3259F01F3269F00FC0C1
:1001CC00812F0E9407060BC0812F0E94070607C0D3
:1001DC00812F0E94070603C0812F0E940706B3944B
:1001EC00912E00E0A1C18D3309F09EC1013009F0C0
:1001FC0056C00E9407063BE2A31669F03A1520F0A0
:10020C008AE2A81679F028C09DE2A916B9F02FE26F
:10021C00A216D9F021C0E980FA808B819C81E80E6E
:10022C00F91E1AC029813A818B819C81289F70010B
:10023C00299FF00C389FF00C11240EC0E980FA8035
:10024C008B819C81E81AF90A07C089819A816B819C
:10025C007C810E94D7077B01C7010E94D1063FEF2A
:10026C0083ED90E3315080409040E1F700C00000F6
:10027C0080E00DC0E82FF0E0EE0FFF1F21E030E032
:10028C002C0F3D1FE20FF31F118210828F5F843100
:10029C0088F381E00E949A05B12C00E045C1011160
:1002AC0043C10E9407063BE2931681F0391528F0F2
:1002BC008AE2981609F448C016C19DE2991609F411
:1002CC0095C02FE2921609F4CFC00DC13BE2A312E8
:1002DC000BC0E980FA808B819C818E0D9F1DED8077
:1002EC00FE80E80EF91EFFC08DE2A8120BC0E9805B
:1002FC00FA802B813C818D819E81820F931FE81A9D
:10030C00F90AF1C09FE2A9120CC089819A816B8114
:10031C007C810E94D7078D819E817B01E80EF91E9E
:10032C00E2C02AE2A21210C029813A818B819C8101
:10033C00289F7001299FF00C389FF00C11248D819F
:10034C009E81E80EF91ECFC03BE2A31210C0E980DB
:10035C00FA804B815C812D813E81429FC001439F7D
:10036C00900D529F900D1124E80EF91EBCC08DE229
:10037C00A81210C0E980FA804B815C812D813E81EE
:10038C00429FC001439F900D529F900D1124E81A7B
:10039C00F90AA9C09FE2A91211C089819A814B81E7
:1003AC005C812D813E81429FB001439F700D529F15
:1003BC00700D11240E94D7077B0195C02AE2A2126E
:1003CC0015C049815A818B819C81489F9001499F1E
:1003DC00300D589F300D11248D819E81289F700106
:1003EC00299FF00C389FF00C11247DC03BE2A31226
:1003FC000BC0E980FA808B819C81E80EF91E8D81FF
:10040C009E81E81AF90A6FC08DE2A8120BC0E98030
:10041C00FA808B819C81E81AF90A8D819E81E81AF9
:10042C00F90A61C09FE2A9120CC089819A816B8183
:10043C007C810E94D7078D819E817B01E81AF90A85
:10044C0052C02AE2A21210C029813A818B819C8170
:10045C00289F7001299FF00C389FF00C11248D817E
:10046C009E81E81AF90A3FC03BE2A3120BC0E98057
:10047C00FA808B819C816D817E810E94D707E60E6C
:10048C00F71E31C08DE2A8120BC0E980FA808B8177
:10049C009C816D817E810E94D707E61AF70A23C0E2
:1004AC009FE2A9120DC089819A816B817C810E9487
:1004BC00D707CB016D817E810E94D7077B0113C0CA
:1004CC002AE2A21210C049815A812B813C81429FA1
:1004DC00C001439F900D529F900D11246D817E8120
:1004EC000E94D7077B01C7010E94D1063FEF83ED25
:1004FC0090E3315080409040E1F700C0000080E074
:10050C000DC0E82FF0E0EE0FFF1F21E030E02C0FC4
:10051C003D1FE20FF31F118210828F5F843188F32D
:10052C0081E00E949A05B12C133609F0EACD81E0E6
:06053C000E949A05E6CDC5
:1005420085E49EE10197F1F700C0000041E063E01D
:1005520080E00E94B40441E062E080E00E94B404C2
:1005620041E060E081E00E94B40441E061E081E0AA
:100572000E94B40441E062E081E00E94B40441E0E0
:1005820064E081E00E94B40440E060E081E00E9407
:10059200270541E061E081E00E94270540E062E03A
:1005A20081E00E94270540E064E081E00E94270587
:1005B20041E062E080E00E94270583EF91E001972D
:1005C200F1F700C0000040E062E080E00E942705F1
:1005D20083EF91E00197F1F700C0000040E060E096
:1005E20081E00E94270541E061E081E00E94270549
:1005F20040E062E081E00E94270540E064E081E0A3
:100602000E94270541E062E080E00E94270583EF17
:1006120091E00197F1F700C0000040E062E080E065
:100622000E94270583EF91E00197F1F700C00000D7
:1006320040E062E081E00E94270541E064E081E061
:100642000E94270541E062E080E00E94270583EFD7
:1006520091E00197F1F700C0000040E062E080E025
:100662000E94270583EF91E00197F1F700C0000097
:1006720040E060E081E00E94270540E061E081E027
:100682000E94270540E062E081E00E94270540E0E9
:1006920064E081E00E94270541E062E080E00E9480
:1006A200270583EF91E00197F1F700C0000040E0D9
:1006B20062E080E00E94270583EF91E00197F1F765
:1006C20000C0000040E060E081E00E94270540E0B9
:1006D20061E081E00E94270541E062E081E00E9442
:1006E200270541E064E081E00E94270541E062E0E5
:1006F20080E00E94270583EF91E00197F1F700C0A7
:10070200000040E062E080E00E94270583EF91E074
:100712000197F1F700C0000040E060E081E00E9434
:10072200270540E061E081E00E94270540E062E0A9
:1007320081E00E94270540E064E081E00E942705F5
:1007420041E062E080E00E94270583EF91E001979B
:10075200F1F700C0000040E062E080E00E9427055F
:1007620083EF91E00197F1F700C0000041E060E003
:1007720081E00E94270540E061E081E00E942705B8
:1007820040E062E081E00E94270540E064E081E011
:100792000E94270541E062E080E00E94270583EF86
:1007A20091E00197F1F700C0000040E062E080E0D4
:1007B2000E94270583EF91E00197F1F700C0000046
:1007C20040E060E081E00E94270540E061E081E0D6
:1007D2000E94270540E062E081E00E94270540E098
:1007E20064E081E00E94270541E062E080E00E942F
:1007F200270583EF91E00197F1F700C0000040E088
:1008020062E080E00E94270583EF91E00197F1F713
:1008120000C0000041E060E081E00E94270541E065
:1008220061E081E00E94270541E062E081E00E94F0
:10083200270540E064E081E00E94270541E062E094
:1008420080E00E94270583EF91E00197F1F700C055
:10085200000040E062E080E00E94270583EF91E023
:0A0862000197F1F700C000000895AF
:10086C00CF93811103C0C0E8C60F10C0813019F4BA
:10087C00C0ECC60F0BC0823019F4C4E9C60F06C019
:10088C00833019F4C4EDC60F01C0C0E040E063E052
:10089C0080E00E942705C4FB442740F960E081E01A
:1008AC000E942705C5FB442740F961E081E00E94C6
:1008BC002705C6FB442740F962E081E00E9427052A
:1008CC0041E064E081E00E94270541E062E080E0C5
:1008DC000E94270589EF90E00197F1F700C0000016
:1008EC0040E062E080E00E94270589EF90E00197EC
:1008FC00F1F700C000004C2F417060E081E00E94D5
:10090C002705C1FB442740F961E081E00E942705DF
:10091C00C2FB442740F962E081E00E942705C3FB3B
:10092C00442740F964E081E00E94270541E062E041
:10093C0080E00E94270589EF90E00197F1F700C055
:10094C00000040E062E080E00E94270589EF90E023
:0C095C000197F1F700C00000CF91089552
:10096800683008F06FC0411138C0813091F028F02C
:100978008230D9F0833029F108952AB381E090E0DC
:1009880002C0880F991F6A95E2F7809582238ABB77
:10099800089527B381E090E002C0880F991F6A95F7
:1009A800E2F78095822387BB089524B381E090E025
:1009B80002C0880F991F6A95E2F78095822384BB4D
:1009C800089521B381E090E002C0880F991F6A95CD
:1009D800E2F78095822381BB0895413099F58130F3
:1009E80089F028F08230C9F0833011F108952AB3D4
:1009F80081E090E002C0880F991F6A95E2F7822B88
:100A08008ABB089527B381E090E002C0880F991F40
:100A18006A95E2F7822B87BB089524B381E090E0C2
:100A280002C0880F991F6A95E2F7822B84BB08954C
:100A380021B381E090E002C0880F991F6A95E2F720
:060A4800822B81BB089522
:100A4E00683008F06FC0411138C0813091F028F045
:100A5E008230D9F0833029F108952BB381E090E0F4
:100A6E0002C0880F991F6A95E2F7809582238BBB8F
:100A7E00089528B381E090E002C0880F991F6A950F
:100A8E00E2F78095822388BB089525B381E090E03C
:100A9E0002C0880F991F6A95E2F78095822385BB65
:100AAE00089522B381E090E002C0880F991F6A95E5
:100ABE00E2F78095822382BB0895413099F581300B
:100ACE0089F028F08230C9F0833011F108952BB3EC
:100ADE0081E090E002C0880F991F6A95E2F7822BA1
:100AEE008BBB089528B381E090E002C0880F991F58
:100AFE006A95E2F7822B88BB089525B381E090E0DA
:100B0E0002C0880F991F6A95E2F7822B85BB089564
:100B1E0022B381E090E002C0880F991F6A95E2F738
:060B2E00822B82BB08953A
:100B3400CF93C82F40E063E080E00E942705C4FB08
:100B4400442740F960E081E00E942705C5FB442763
:100B540040F961E081E00E942705C6FB442740F983
:100B640062E081E00E9427054C2F441F4427441F64
:100B740064E081E00E94270541E062E080E00E9499
:100B8400270589EF90E00197F1F700C0000040E0ED
:100B940062E080E00E94270589EF90E00197F1F779
:100BA40000C000004C2F417060E081E00E942705E6
:100BB400C1FB442740F961E081E00E942705C2FBA4
:100BC400442740F962E081E00E942705C3FB4427E3
:100BD40040F964E081E00E94270541E062E080E0A2
:100BE4000E94270589EF90E00197F1F700C000000B
:100BF40040E062E080E00E94270583EF91E00197E6
:0A0C0400F1F700C00000CF91089541
:100C0E00CF93C82F41E063E080E00E942705C4FB2C
:100C1E00442740F960E081E00E942705C5FB442788
:100C2E0040F961E081E00E942705C6FB442740F9A8
:100C3E0062E081E00E9427054C2F441F4427441F89
:100C4E0064E081E00E94270541E062E080E00E94BE
:100C5E00270589EF90E00197F1F700C0000040E012
:100C6E0062E080E00E94270589EF90E00197F1F79E
:100C7E0000C000004C2F417060E081E00E9427050B
:100C8E00C1FB442740F961E081E00E942705C2FBC9
:100C9E00442740F962E081E00E942705C3FB442708
:100CAE0040F964E081E00E94270541E062E080E0C7
:100CBE000E94270589EF90E00197F1F700C0000030
:100CCE0040E062E080E00E94270589EF90E0019706
:0A0CDE00F1F700C00000CF91089567
:100CE800CF92DF92EF92FF920F931F93CF93DF93F0
:100CF8000F92CDB7DEB700E042C0C02ED12CF6016E
:100D0800EC58FF4F40E0608183E00E94270510E027
:100D18002BC0E12EF12CF701E059FF4FAE014F5FD8
:100D28005F4F608182E00E947907898181111BC031
:100D3800C701880F991F880F991F805A9F4FFC0180
:100D4800EC0DFD1D10810AC0AE014F5F5F4FF7012A
:100D5800E059FF4F608182E00E94790799819923C9
:100D680099F3812F10C01F5F143098F2F601EC58E8
:100D7800FF4F41E0608183E00E9427050F5F043048
:100D880008F4BBCF8FEF0F90DF91CF911F910F9198
:0A0D9800FF90EF90DF90CF900895D8
:100DA2001F93CF93DF9300D000D0CDB7DEB7AC0155
:100DB200892B81F580E30E94070641C09A01ADECC0
:100DC200BCEC0E94EB07969587959695879596952C
:100DD20087959C01220F331F880F991F880F991F37
:100DE200880F991F820F931F9A01281B390BE1E08C
:100DF200F0E0EC0FFD1FE10FF11D20839A010E942C
:100E0200EB07AC01569547955695479556954795EC
:100E12001F5F01C010E04115510581F60EC0E12FA0
:100E2200F0E0319781E090E08C0F9D1FE80FF91FF1
:100E32008081805D0E94070611501111F0CF0F9042
:0E0E42000F900F900F90DF91CF911F910895A8
:100E500041E067E083E00E94B40441E066E083E0A3
:100E60000E94B40441E065E083E00E94B40441E0E4
:100E700063E083E00E94B40441E067E083E00E9405
:100E8000270541E066E083E00E94270541E065E038
:100E900083E00E94270541E063E083E00E9427058C
:100EA00040E065E082E00E94B40440E064E082E05B
:100EB0000E94B40440E063E082E00E94B40440E099
:100EC00062E082E00E94B40441E065E082E00E94BA
:100ED000270541E064E082E00E94270541E063E0ED
:100EE00082E00E94270541E062E082E00E9427053F
:020EF000089563
:100EF20041155105D1F16830D0F5813091F028F0DB
:100F02008230D9F0833029F134C089B390E002C035
:100F1200959587956A95E2F78170FA01808380E062
:100F2200089586B390E002C0959587956A95E2F799
:100F32008170FA01808380E0089583B390E002C05B
:100F4200959587956A95E2F78170FA01808380E032
:100F5200089580B390E002C0959587956A95E2F76F
:100F62008170FA01808380E0089581E0089581E034
:060F7200089580E00895DF
:100F7800CF92DF92EF92CF936B01E82EC0E003C0CF
:100F88000E940706CF5FAE2DC6018C0F911DA11DD3
:100F9800FC018491A7FD80818111F2CFCF91EF9060
:060FA800DF90CF900895D8
:100FAE00AA1BBB1B51E107C0AA1FBB1FA617B70781
:100FBE0010F0A61BB70B881F991F5A95A9F780959D
:080FCE009095BC01CD010895CE
:100FD600A29FB001B39FC001A39F700D811D112474
:0E0FE600911DB29F700D811D1124911D089563
:100FF400EC010E940A080E940908CE010E940B0815
:06100400CE010E94070866
:04100A000C94000042
:04100E000E945600E6
:0210120008953F
:0210140008953D
:0210160008953B
:101018000708092F0405062A0102032D63003D2B4A
:0410280005040302B6
:04102C0007060503AB
:00000001FF
