:100000000C942A000C94F5030C94F5030C94F5035E
:100010000C94F5030C94F5030C94F5030C94F50380
:100020000C94F5030C94F5030C94F5030C94F50370
:100030000C94F5030C94F5030C94F5030C94F50360
:100040000C94F5030C94F5030C94F5030C94F50350
:100050000C94F50311241FBECFE5D8E0DEBFCDBF61
:0C0060000E941B030C94E303F894FFCFF4
:10006C005374617274204F4B00534C41204F4B0022
:10007C0044617461204F4B0053746F70204F4B00E0
:10008C0085E49EE10197F1F700C0000040E060E0DC
:10009C0081E00E943B0241E061E081E00E943B0272
:1000AC0040E062E081E00E943B0240E063E081E0DE
:1000BC000E943B0241E062E080E00E943B0283EF41
:1000CC0091E00197F1F700C0000040E062E080E0B1
:1000DC000E943B0283EF91E00197F1F700C0000012
:1000EC0040E060E081E00E943B0241E061E081E0A1
:1000FC000E943B0240E062E081E00E943B0240E053
:10010C0063E081E00E943B0241E062E080E00E94FB
:10011C003B0283EF91E00197F1F700C0000040E053
:10012C0062E080E00E943B0283EF91E00197F1F7DF
:10013C0000C0000040E062E081E00E943B0241E030
:10014C0063E081E00E943B0241E062E080E00E94BB
:10015C003B0283EF91E00197F1F700C0000040E013
:10016C0062E080E00E943B0283EF91E00197F1F79F
:10017C0000C0000040E060E081E00E943B0240E0F3
:10018C0061E081E00E943B0240E062E081E00E947D
:10019C003B0240E063E081E00E943B0241E062E010
:1001AC0080E00E943B0283EF91E00197F1F700C0E1
:1001BC00000040E062E080E00E943B0283EF91E0AF
:1001CC000197F1F700C0000040E060E081E00E9480
:1001DC003B0240E061E081E00E943B0241E062E0D2
:1001EC0081E00E943B0241E063E081E00E943B021F
:1001FC0041E062E080E00E943B0283EF91E00197D6
:10020C00F1F700C0000040E062E080E00E943B0299
:10021C0083EF91E00197F1F700C0000040E060E04F
:10022C0081E00E943B0240E061E081E00E943B02E1
:10023C0040E062E081E00E943B0240E063E081E04C
:10024C000E943B0241E062E080E00E943B0283EFAF
:10025C0091E00197F1F700C0000040E062E080E01F
:10026C000E943B0283EF91E00197F1F700C0000080
:10027C0041E060E081E00E943B0240E061E081E00F
:10028C000E943B0240E062E081E00E943B0240E0C1
:10029C0063E081E00E943B0241E062E080E00E946A
:1002AC003B0283EF91E00197F1F700C0000040E0C2
:1002BC0062E080E00E943B0283EF91E00197F1F74E
:1002CC0000C0000040E060E081E00E943B0240E0A2
:1002DC0061E081E00E943B0240E062E081E00E942C
:1002EC003B0240E063E081E00E943B0241E062E0BF
:1002FC0080E00E943B0283EF91E00197F1F700C090
:10030C00000040E062E080E00E943B0283EF91E05D
:10031C000197F1F700C0000041E060E081E00E942D
:10032C003B0241E061E081E00E943B0241E062E07F
:10033C0081E00E943B0240E063E081E00E943B02CE
:10034C0041E062E080E00E943B0283EF91E0019784
:10035C00F1F700C0000040E062E080E00E943B0248
:0E036C0083EF91E00197F1F700C000000895C3
:10037A00CF93811103C0C0E8C60F10C0813019F4B1
:10038A00C0ECC60F0BC0823019F4C4E9C60F06C010
:10039A00833019F4C4EDC60F01C0C0E040E063E049
:1003AA0080E00E943B02C4FB442740F960E081E000
:1003BA000E943B02C5FB442740F961E081E00E94AC
:1003CA003B02C6FB442740F962E081E00E943B02FF
:1003DA0041E063E081E00E943B0241E062E080E0AC
:1003EA000E943B0289EF90E00197F1F700C00000FC
:1003FA0040E062E080E00E943B0289EF90E00197D2
:10040A00F1F700C000004C2F417060E081E00E94CB
:10041A003B02C1FB442740F961E081E00E943B02B4
:10042A00C2FB442740F962E081E00E943B02C3FB21
:10043A00442740F963E081E00E943B0241E062E028
:10044A0080E00E943B0289EF90E00197F1F700C03B
:10045A00000040E062E080E00E943B0289EF90E009
:0C046A000197F1F700C00000CF91089549
:10047600683008F06FC0411138C0813091F028F023
:100486008230D9F0833029F108952BB381E090E0D2
:1004960002C0880F991F6A95E2F7809582238BBB6D
:1004A600089528B381E090E002C0880F991F6A95ED
:1004B600E2F78095822388BB089525B381E090E01A
:1004C60002C0880F991F6A95E2F78095822385BB43
:1004D600089522B381E090E002C0880F991F6A95C3
:1004E600E2F78095822382BB0895413099F58130E9
:1004F60089F028F08230C9F0833011F108952BB3CA
:1005060081E090E002C0880F991F6A95E2F7822B7E
:100516008BBB089528B381E090E002C0880F991F35
:100526006A95E2F7822B88BB089525B381E090E0B7
:1005360002C0880F991F6A95E2F7822B85BB089542
:1005460022B381E090E002C0880F991F6A95E2F716
:06055600822B82BB089518
:10055C00CF93C82F41E063E080E00E943B02C4FBD4
:10056C00442740F960E081E00E943B02C5FB442730
:10057C0040F961E081E00E943B02C6FB442740F950
:10058C0062E081E00E943B024C2F441F4427441F31
:10059C0063E081E00E943B0241E062E080E00E9467
:1005AC003B0289EF90E00197F1F700C0000040E0BA
:1005BC0062E080E00E943B0289EF90E00197F1F746
:1005CC0000C000004C2F417060E081E00E943B02B3
:1005DC00C1FB442740F961E081E00E943B02C2FB71
:1005EC00442740F962E081E00E943B02C3FB4427B0
:1005FC0040F963E081E00E943B0241E062E080E070
:10060C000E943B0289EF90E00197F1F700C00000D7
:10061C0040E062E080E00E943B0289EF90E00197AD
:0A062C00F1F700C00000CF9108951F
:100636000E94D6030E94460080E00E94A5030E9405
:10064600B603811111C060E00E94BD016CE670E046
:1006560080E00E9474032FEF89E698E121508040E4
:100666009040E1F700C0000082E00E948F03C82F8F
:10067600811112C060E081E00E94BD0165E770E073
:1006860080E00E9474032FEF84E39CE021508040B9
:100696009040E1F700C00000C11117C0C89915C00D
:1006A60085E00E94C70360E082E00E94BD016CE71E
:1006B60070E080E00E9474032FEF84E39CE02150F9
:1006C60080409040E1F700C000000E94EE0360E029
:1006D60083E00E94BD0164E870E080E00E9474033C
:0206E600FFCF44
:1006E800CF92DF92EF92CF936B01E82EC0E003C068
:1006F8000E94AE02CF5FAE2DC6018C0F911DA11DC9
:10070800FC018491A7FD80818111F2CFCF91EF90F8
:06071800DF90CF90089570
:10071E00880F83B983B18E7F83B986B78F7D86BFED
:10072E0086B7806886BF06B607FEFDCF81B1887F8B
:0C073E00883111F480E0089583E00895F4
:10074A0092E090B991B19E7F91B991B19D7F91B993
:10075A00880F82B986B7846086BF86B7806486BFF1
:02076A000895F0
:10076C0086B7806286BF86B7806886BF06B607FEEE
:10077C00FDCF81B1887F883011F480E0089581E04D
:02078C000895CE
:10078E0083B986B7806886BF06B607FEFDCF81B1F6
:0E079E00887F883211F480E0089585E0089588
:1007AC008CE08ABB8FE087BB83E084BB11BA81E00D
:0A07BC008BBB18BA15BA12BA0895E3
:1007C600EC010E94FA030E94F903CE010E94FB038A
:0607D600CE010E94F703B2
:0E07DC0086B7806186BF86B7806886BF0895A5
:0407EA000C9400006B
:0407EE000E94340031
:0207F200089568
:0207F400089566
:0207F600089564
:00000001FF
