:100000000C942A000C94E1020C94E1020C94E1029D
:100010000C94E1020C94E1020C94E1020C94E102D4
:100020000C94E1020C94E1020C94E1020C94E102C4
:100030000C94E1020C94E1020C94E1020C94E102B4
:100040000C94E1020C94E1020C94E1020C94E102A4
:100050000C94E10211241FBECFE5D8E0DEBFCDBF76
:0C0060000E94DA020C94CF02F894FFCF4B
:10006C000F931F93CF93DF938C019C01ADECBCECF1
:10007C000E94C002EC01D695C795D695C795D6952A
:10008C00C795AE01440F551FCC0FDD1FCC0FDD1FE4
:10009C00CC0FDD1FC40FD51FC8018C1B9D0BEC01B1
:1000AC00482F417060E081E00E942402AE01569519
:1000BC004795417061E081E00E942402AE015695A3
:1000CC00479556954795417062E081E00E94240265
:1000DC00D695C795D695C795D695C7954C2F417093
:1000EC0064E081E00E94240240E063E080E00E9432
:1000FC00240241E062E080E00E94240241E065E0DD
:10010C0081E00E94240241E066E081E00E9424022A
:10011C0081EE94E00197F1F700C000009801ADEC7E
:10012C00BCEC0E94C002FC01F695E795F695E795AC
:10013C00F695E7959F010E94C002EC01D695C795F4
:10014C00D695C795D695C795AE01440F551FCC0FC4
:10015C00DD1FCC0FDD1FCC0FDD1FC40FD51FCF0152
:10016C008C1B9D0BEC01482F417060E081E00E94DC
:10017C002402AE0156954795417061E081E00E94E2
:10018C002402AE015695479556954795417062E00D
:10019C0081E00E942402D695C795D695C795D69531
:1001AC00C7954C2F417064E081E00E94240241E02D
:1001BC0063E080E00E94240240E062E080E00E9464
:1001CC00240241E065E081E00E94240241E066E007
:1001DC0081E00E94240281EE94E00197F1F700C0C7
:1001EC00000098013695279536952795ABE7B4E135
:1001FC000E94C002FC01F695E7959F01ADECBCECAA
:10020C000E94C002EC01D695C795D695C795D69598
:10021C00C795AE01440F551FCC0FDD1FCC0FDD1F52
:10022C00CC0FDD1FC40FD51FCF018C1B9D0BEC0118
:10023C00482F417060E081E00E942402AE01569587
:10024C004795417061E081E00E942402AE01569511
:10025C00479556954795417062E081E00E942402D3
:10026C00D695C795D695C795D695C7954C2F417001
:10027C0064E081E00E94240241E063E080E00E949F
:10028C00240241E062E080E00E94240240E065E04C
:10029C0081E00E94240241E066E081E00E94240299
:1002AC0081EE94E00197F1F700C0000098013695BB
:1002BC0027953695279536952795A5ECB0E20E94A3
:1002CC00C0028C01EC01D295C295CF70CD27DF70A6
:1002DC00CD274C2F417060E081E00E942402AE01DA
:1002EC0056954795417061E081E00E942402D695B5
:1002FC00C795D695C7954C2F417062E081E00E945E
:10030C002402A801440F452F441F550B51954170F1
:10031C0064E081E00E94240241E063E080E00E94FE
:10032C00240241E062E080E00E94240241E065E0AA
:10033C0081E00E94240240E066E081E00E942402F9
:10034C0081EE94E00197F1F700C00000DF91CF91AE
:06035C001F910F910895AE
:10036200683008F06FC0411138C0813091F028F038
:100372008230D9F0833029F108952AB381E090E0E8
:1003820002C0880F991F6A95E2F7809582238ABB83
:10039200089527B381E090E002C0880F991F6A9503
:1003A200E2F78095822387BB089524B381E090E031
:1003B20002C0880F991F6A95E2F78095822384BB59
:1003C200089521B381E090E002C0880F991F6A95D9
:1003D200E2F78095822381BB0895413099F58130FF
:1003E20089F028F08230C9F0833011F108952AB3E0
:1003F20081E090E002C0880F991F6A95E2F7822B94
:100402008ABB089527B381E090E002C0880F991F4C
:100412006A95E2F7822B87BB089524B381E090E0CE
:1004220002C0880F991F6A95E2F7822B84BB089558
:1004320021B381E090E002C0880F991F6A95E2F72C
:06044200822B81BB08952E
:10044800683008F06FC0411138C0813091F028F051
:100458008230D9F0833029F108952BB381E090E000
:1004680002C0880F991F6A95E2F7809582238BBB9B
:10047800089528B381E090E002C0880F991F6A951B
:10048800E2F78095822388BB089525B381E090E048
:1004980002C0880F991F6A95E2F78095822385BB71
:1004A800089522B381E090E002C0880F991F6A95F1
:1004B800E2F78095822382BB0895413099F5813017
:1004C80089F028F08230C9F0833011F108952BB3F8
:1004D80081E090E002C0880F991F6A95E2F7822BAD
:1004E8008BBB089528B381E090E002C0880F991F64
:1004F8006A95E2F7822B88BB089525B381E090E0E6
:1005080002C0880F991F6A95E2F7822B85BB089570
:1005180022B381E090E002C0880F991F6A95E2F744
:06052800822B82BB089546
:10052E0041E063E080E00E94B10141E062E080E0E2
:10053E000E94B10141E065E081E00E94B10141E01D
:10054E0066E081E00E94B10141E060E081E00E943E
:10055E00B10141E061E081E00E94B10141E062E061
:10056E0081E00E94B10141E064E081E00E94B101AE
:02057E000895DE
:10058000A29FB001B39FC001A39F700D811D1124D4
:0E059000911DB29F700D811D1124911D0895C3
:10059E00EC010E94E6020E94E502CE010E94E702F3
:0605AE00CE010E94E302F1
:0E05B4000E94970281E990E00E943600F9CF84
:0405C2000C94000095
:0405C6000E9434005B
:0205CA00089592
:0205CC00089590
:0205CE0008958E
:00000001FF
