:100000000C942A000C94C2050C94C2050C94C205F1
:100010000C94C2050C94C2050C94C2050C94C20544
:100020000C94C2050C94C2050C94C2050C94C20534
:100030000C94C2050C94C2050C94C2050C94C20524
:100040000C94C2050C94C2050C94C2050C94C20514
:100050000C94C20511241FBECFE5D8E0DEBFCDBF92
:0C0060000E94CB010C94A005F894FFCF87
:10006C0085E49EE10197F1F700C0000041E063E0F8
:10007C0080E00E941F0341E062E080E00E941F03C9
:10008C0041E060E081E00E941F0341E061E081E01B
:10009C000E941F0341E062E081E00E941F0341E0E7
:1000AC0064E081E00E941F0340E060E081E00E9478
:1000BC00920341E061E081E00E94920340E062E043
:1000CC0081E00E94920340E064E081E00E94920390
:1000DC0041E062E080E00E94920383EF91E001979F
:1000EC00F1F700C0000040E062E080E00E94920363
:1000FC0083EF91E00197F1F700C0000040E060E071
:10010C0081E00E94920341E061E081E00E94920351
:10011C0040E062E081E00E94920340E064E081E014
:10012C000E94920341E062E080E00E94920383EF20
:10013C0091E00197F1F700C0000040E062E080E040
:10014C000E94920383EF91E00197F1F700C0000049
:10015C0040E062E081E00E94920341E064E081E0D3
:10016C000E94920341E062E080E00E94920383EFE0
:10017C0091E00197F1F700C0000040E062E080E000
:10018C000E94920383EF91E00197F1F700C0000009
:10019C0040E060E081E00E94920340E061E081E099
:1001AC000E94920340E062E081E00E94920340E0F2
:1001BC0064E081E00E94920341E062E080E00E94F2
:1001CC00920383EF91E00197F1F700C0000040E04B
:1001DC0062E080E00E94920383EF91E00197F1F7D7
:1001EC0000C0000040E060E081E00E94920340E02B
:1001FC0061E081E00E94920341E062E081E00E94B4
:10020C00920341E064E081E00E94920341E062E0ED
:10021C0080E00E94920383EF91E00197F1F700C018
:10022C00000040E062E080E00E94920383EF91E0E6
:10023C000197F1F700C0000040E060E081E00E940F
:10024C00920340E061E081E00E94920340E062E0B2
:10025C0081E00E94920340E064E081E00E949203FE
:10026C0041E062E080E00E94920383EF91E001970D
:10027C00F1F700C0000040E062E080E00E949203D1
:10028C0083EF91E00197F1F700C0000041E060E0DE
:10029C0081E00E94920340E061E081E00E949203C1
:1002AC0040E062E081E00E94920340E064E081E083
:1002BC000E94920341E062E080E00E94920383EF8F
:1002CC0091E00197F1F700C0000040E062E080E0AF
:1002DC000E94920383EF91E00197F1F700C00000B8
:1002EC0040E060E081E00E94920340E061E081E048
:1002FC000E94920340E062E081E00E94920340E0A1
:10030C0064E081E00E94920341E062E080E00E94A0
:10031C00920383EF91E00197F1F700C0000040E0F9
:10032C0062E080E00E94920383EF91E00197F1F785
:10033C0000C0000041E060E081E00E94920341E0D7
:10034C0061E081E00E94920341E062E081E00E9462
:10035C00920340E064E081E00E94920341E062E09D
:10036C0080E00E94920383EF91E00197F1F700C0C7
:10037C00000040E062E080E00E94920383EF91E095
:0A038C000197F1F700C0000008958A
:1003960041E060E083E00E941F0341E061E083E00A
:1003A6000E941F0341E062E083E00E941F0341E0D8
:1003B60060E082E00E941F0340E060E080E00E946F
:1003C6001F0340E061E080E00E941F030E943600A8
:1003D6000E9438050E94BA0580E00E94B3050E947B
:1003E600BE050E948A05EC0160E080E00E94A10241
:1003F600CE010E94720481E00E94B3050E94BE05F0
:100406000E948A059C01A8E8B3E10E947B059B0136
:10041600AC01012E1AE056954795379527951A9502
:10042600D1F7102DADECBCEC0E947B059695879517
:1004360096958795969587958E3131F441E060E0E3
:1004460082E00E94920305C040E060E082E00E94E4
:10045600920385E00E94B3050E94BE050E948A05AC
:100466001F921F929F938F93A12CB12C65016894C4
:10047600A2F8E12CF12C87012FEF33E040E050E0A9
:1004860060E070E0CB010E94C9040F900F900F90BE
:100496000F90611571058105910581F440E060E0DA
:1004A60083E00E94920340E061E083E00E949203B1
:1004B60040E062E083E00E9492038ECF61307105D6
:1004C6008105910581F441E060E083E00E9492039A
:1004D60040E061E083E00E94920340E062E083E056
:1004E6000E94920379CF623071058105910581F4EE
:1004F60041E060E083E00E94920341E061E083E036
:100506000E94920340E062E083E00E94920364CF7F
:10051600633071058105910509F05ECF41E060E029
:1005260083E00E94920341E061E083E00E9492032F
:0C05360041E062E083E00E9492034ECF9F
:10054200CF93811103C0C0E8C60F10C0813019F4E7
:10055200C0ECC60F0BC0823019F4C4E9C60F06C046
:10056200833019F4C4EDC60F01C0C0E040E063E07F
:1005720080E00E949203C4FB442740F960E081E0DE
:100582000E949203C5FB442740F961E081E00E948A
:100592009203C6FB442740F962E081E00E94920385
:1005A20041E064E081E00E94920341E062E080E089
:1005B2000E94920389EF90E00197F1F700C00000DA
:1005C20040E062E080E00E94920389EF90E00197B0
:1005D200F1F700C000004C2F417060E081E00E9402
:1005E2009203C1FB442740F961E081E00E9492033B
:1005F200C2FB442740F962E081E00E949203C3FB00
:10060200442740F964E081E00E94920341E062E005
:1006120080E00E94920389EF90E00197F1F700C019
:10062200000040E062E080E00E94920389EF90E0E7
:0C0632000197F1F700C00000CF9108957F
:10063E00683008F06FC0411138C0813091F028F059
:10064E008230D9F0833029F108952AB381E090E009
:10065E0002C0880F991F6A95E2F7809582238ABBA4
:10066E00089527B381E090E002C0880F991F6A9524
:10067E00E2F78095822387BB089524B381E090E052
:10068E0002C0880F991F6A95E2F78095822384BB7A
:10069E00089521B381E090E002C0880F991F6A95FA
:1006AE00E2F78095822381BB0895413099F5813020
:1006BE0089F028F08230C9F0833011F108952AB301
:1006CE0081E090E002C0880F991F6A95E2F7822BB5
:1006DE008ABB089527B381E090E002C0880F991F6E
:1006EE006A95E2F7822B87BB089524B381E090E0F0
:1006FE0002C0880F991F6A95E2F7822B84BB08957A
:10070E0021B381E090E002C0880F991F6A95E2F74D
:06071E00822B81BB08954F
:10072400683008F06FC0411138C0813091F028F072
:100734008230D9F0833029F108952BB381E090E021
:1007440002C0880F991F6A95E2F7809582238BBBBC
:10075400089528B381E090E002C0880F991F6A953C
:10076400E2F78095822388BB089525B381E090E069
:1007740002C0880F991F6A95E2F78095822385BB92
:10078400089522B381E090E002C0880F991F6A9512
:10079400E2F78095822382BB0895413099F5813038
:1007A40089F028F08230C9F0833011F108952BB319
:1007B40081E090E002C0880F991F6A95E2F7822BCE
:1007C4008BBB089528B381E090E002C0880F991F85
:1007D4006A95E2F7822B88BB089525B381E090E007
:1007E40002C0880F991F6A95E2F7822B85BB089592
:1007F40022B381E090E002C0880F991F6A95E2F766
:06080400822B82BB089567
:10080A00CF93C82F41E063E080E00E949203C4FBCB
:10081A00442740F960E081E00E949203C5FB442727
:10082A0040F961E081E00E949203C6FB442740F947
:10083A0062E081E00E9492034C2F441F4427441F28
:10084A0064E081E00E94920341E062E080E00E945D
:10085A00920389EF90E00197F1F700C0000040E0B1
:10086A0062E080E00E94920389EF90E00197F1F73D
:10087A0000C000004C2F417060E081E00E949203AA
:10088A00C1FB442740F961E081E00E949203C2FB68
:10089A00442740F962E081E00E949203C3FB4427A7
:1008AA0040F964E081E00E94920341E062E080E066
:1008BA000E94920389EF90E00197F1F700C00000CF
:1008CA0040E062E080E00E94920389EF90E00197A5
:0A08DA00F1F700C00000CF9108956F
:1008E4001F93CF93DF9300D000D0CDB7DEB7AC0118
:1008F400892B81F580E30E94050441C09A01ADEC87
:10090400BCEC0E947B059695879596958795969560
:1009140087959C01220F331F880F991F880F991FF9
:10092400880F991F820F931F9A01281B390BE1E04E
:10093400F0E0EC0FFD1FE10FF11D20839A010E94EE
:100944007B05AC0156954795569547955695479521
:100954001F5F01C010E04115510581F60EC0E12F63
:10096400F0E0319781E090E08C0F9D1FE80FF91FB4
:100974008081805D0E94050411501111F0CF0F9009
:0E0984000F900F900F90DF91CF911F9108956B
:100992004F925F926F927F92AF92BF92CF92DF920D
:1009A200EF92FF920F931F93CF93DF9300D000D06B
:1009B200CDB7DEB72B013C0129833A834B835C839D
:1009C2008D899E89AF89B88D9C01AD0124193509A5
:1009D20046095709C601B5016E197F09800B910BB3
:1009E2000E946B0529813A814B815C81241935096A
:1009F200460957090E945405C801B701620F731FC7
:100A0200841F951F0F900F900F900F90DF91CF9141
:100A12001F910F91FF90EF90DF90CF90BF90AF901A
:0A0A22007F906F905F904F90089551
:100A2C00A1E21A2EAA1BBB1BFD010DC0AA1FBB1FE6
:100A3C00EE1FFF1FA217B307E407F50720F0A21B58
:100A4C00B30BE40BF50B661F771F881F991F1A94C5
:100A5C0069F760957095809590959B01AC01BD01EF
:040A6C00CF01089519
:100A700087B1806487B987B18F7787B987B18F7D58
:100A800087B987B1887F87B987B1866087B986B112
:100A90008F7786B986B18F7D86B986B1806186B938
:080AA00086B1877F86B9089535
:100AA800052E97FB1EF400940E94AB0557FD07D056
:100AB8000E94160507FC03D04EF40C94AB05509524
:0E0AC8004095309521953F4F4F4F5F4F089559
:100AD600DB018F939F930E949505BF91AF91A29FD3
:100AE600800D911DA39F900DB29F900D1124089526
:100AF600A29FB001B39FC001A39F700D811D112459
:0E0B0600911DB29F700D811D1124911D089547
:100B14000E94BE05349BFECF24B135B196B19061DD
:060B240096B9C901089515
:100B2A000E947B05A59F900DB49F900DA49F800DF8
:060B3A00911D1124089535
:100B4000EC010E94C7050E94C605CE010E94C8059F
:060B5000CE010E94C40565
:100B560090958095709561957F4F8F4F9F4F089523
:0E0B660097B1907E97B997B1892B87B9089502
:080B740086B1806886B908957E
:080B7C0086B1806486B908957A
:040B84000C940000CD
:040B88000E94340093
:020B8C000895CA
:020B8E000895C8
:020B90000895C6
:00000001FF
