:100000000C942E000C949F070C949F070C949F0750
:100010000C949F070C949F070C949F070C949F07C8
:100020000C949F070C949F070C949F070C949F07B8
:100030000C949F070C949F070C949F070C949F07A8
:100040000C949F070C949F070C949F070C949F0798
:100050000C949F0700600090000F4C0011241FBEFD
:10006000CFE5D8E0DEBFCDBFE4E5F0E040E017C06B
:10007000B591A59135912591059107FD0CC09591FC
:100080008591EF01F92FE82F05900D92A217B30784
:10009000D9F7FE0104C01D92A217B307E1F7EB35B3
:1000A000F40731F70E94CF000C949407F894FFCF27
:1000B0004849004D79204E616D65006973204164A7
:1000C00068616D00484F572061726520796F752017
:1000D0003F212100546F6461792069276D20676F8B
:1000E000696E6700546F2074656C6C20796F7520A1
:1000F00061626F7574004D792054726176656C6928
:100100006E6720746F004B53410046697273742010
:1001100074696D6520746F00526964652061207098
:100120006C616E6500492056697369746564204B83
:100130006161626100416E642064696420556D7282
:10014000616800212147726561742045787065728D
:1001500069656E636521210049276C6C207669739F
:10016000697420697420616761696E00534F4F4E56
:1001700000546861742773204D792053746F72792D
:100180000054656C6C206D6520796F757273002169
:0D019000215448414E4B20594F552121006C
:10019E00CF93DF93CDB7DEB7E0970FB6F894DEBFFF
:1001AE000FBECDBF0E94200388E0E0E6F0E0DE0146
:1001BE00119601900D928A95E1F788E0E8E6F0E05D
:1001CE00DE01199601900D928A95E1F788E0E0E73D
:1001DE00F0E0DE01519601900D928A95E1F788E0EC
:1001EE00E8E7F0E0DE01599601900D928A95E1F76D
:1001FE0088E0E0E8F0E0DE01919601900D928A959C
:10020E00E1F788E0E8E8F0E0DE01999601900D92C2
:10021E008A95E1F700E010E036C0202F40E060E064
:10022E00CE0181960E94B5042FEF84E39CE021500D
:10023E0080409040E1F700C0000081E00E949F06E0
:10024E008FE19EE40197F1F700C0000098012F5F47
:10025E003F4F40E061E0CE0189960E94B5049FEFCA
:10026E0024E38CE0915020408040E1F700C0000074
:10027E0081E00E949F068FE19EE40197F1F700C096
:10028E0000000E5F1F4F013111053CF221E140E0ED
:10029E0062E0CE0109960E94B5049FEF23EC89E03F
:1002AE00915020408040E1F700C0000060E080E007
:1002BE000E943B0560EB70E080E00E9479079FEFA3
:1002CE0023EC89E0915020408040E1F700C000000F
:1002DE0063E080E00E943B0563EB70E080E00E94EB
:1002EE0079079FEF23EC89E0915020408040E1F7A1
:1002FE0000C0000060E081E00E943B056BEB70E007
:10030E0080E00E9479079FEF23EC89E09150204016
:10031E008040E1F700C0000060E082E00E943B05F3
:10032E0064EC70E080E00E9479079FEF29E688E197
:10033E00915020408040E1F700C0000081E00E9413
:10034E009F068FE19EE40197F1F700C0000021E1C6
:10035E0040E063E0CE0101960E94B5049FEF26E1D6
:10036E0081E1915020408040E1F700C0000060E044
:10037E0080E00E943B0564ED70E080E00E9479070A
:10038E009FEF26E181E1915020408040E1F700C0CF
:10039E00000060E081E00E943B0564EE70E080E0CA
:1003AE000E9479079FEF26E181E191502040804025
:1003BE00E1F700C0000060E082E00E943B0566EFBE
:1003CE0070E080E00E9479079FEF26E181E1915075
:1003DE0020408040E1F700C0000066E083E00E940C
:1003EE003B0566E071E080E00E9479079FEF29E609
:1003FE0088E1915020408040E1F700C0000081E08C
:10040E000E949F068FE19EE40197F1F700C0000065
:10041E0020E040E063E0CE0101960E94B50463E067
:10042E0080E00E943B056AE071E080E00E9479075F
:10043E009FEF26E181E1915020408040E1F700C01E
:10044E00000063E081E00E943B0568E171E080E01E
:10045E000E9479079FEF26E181E191502040804074
:10046E00E1F700C0000063E082E00E943B0565E218
:10047E0071E080E00E9479079FEF26E181E19150C3
:10048E0020408040E1F700C0000063E083E00E945E
:10049E003B0565E371E080E00E9479079FEF29E656
:1004AE0088E1915020408040E1F700C0000081E0DB
:1004BE000E949F068FE19EE40197F1F700C00000B5
:1004CE0020E040E063E0CE0101960E94B50460E0BA
:1004DE0081E00E943B0563E471E080E00E947907B1
:1004EE009FEF26E181E1915020408040E1F700C06E
:1004FE00000060E082E00E943B0568E571E080E06C
:10050E000E9479079FEF26E181E1915020408040C3
:10051E00E1F700C0000068E083E00E943B056CE656
:10052E0071E080E00E9479079FEF29E688E1915003
:10053E0020408040E1F700C0000081E00E949F064D
:10054E008FE19EE40197F1F700C0000029E041E041
:10055E0063E0CE0101960E94B50463E082E00E9442
:10056E003B0561E771E080E00E9479079FEF26E18D
:10057E0081E1915020408040E1F700C0000063E02F
:10058E0083E00E943B0561E871E080E00E947907FC
:10059E009FEF29E688E1915020408040E1F700C0AE
:1005AE00000081E00E949F068FE19EE40197F1F723
:1005BE0000C0000063E082E00E943B056FE871E03E
:1005CE0080E00E94790721E142E064E0CE0141968D
:1005DE000E94B5049FEF26E181E1915020408040BA
:1005EE00E1F700C0000081E00E949F068FE19EE4CB
:1005FE000197F1F700C0000063E082E00E943B0526
:10060E006FE871E080E00E94790721E142E065E049
:10061E00CE0149960E94B5049FEF26E181E19150EB
:10062E0020408040E1F700C0000081E00E949F065C
:02063E00C1CF2A
:1006400085E49EE10197F1F700C0000041E063E01E
:1006500080E00E94B90541E062E080E00E94B905B7
:1006600041E060E081E00E94B90541E061E081E0A5
:100670000E94B90541E062E081E00E94B90541E0D5
:1006800064E081E00E94B90540E060E081E00E9402
:100690002C0641E061E081E00E942C0640E062E02F
:1006A00081E00E942C0640E064E081E00E942C067C
:1006B00041E062E080E00E942C0683EF91E0019728
:1006C000F1F700C0000040E062E080E00E942C06EC
:1006D00083EF91E00197F1F700C0000040E060E097
:1006E00081E00E942C0641E061E081E00E942C063E
:1006F00040E062E081E00E942C0640E064E081E09E
:100700000E942C0641E062E080E00E942C0683EF0C
:1007100091E00197F1F700C0000040E062E080E066
:100720000E942C0683EF91E00197F1F700C00000D2
:1007300040E062E081E00E942C0641E064E081E05C
:100740000E942C0641E062E080E00E942C0683EFCC
:1007500091E00197F1F700C0000040E062E080E026
:100760000E942C0683EF91E00197F1F700C0000092
:1007700040E060E081E00E942C0640E061E081E022
:100780000E942C0640E062E081E00E942C0640E0DE
:1007900064E081E00E942C0641E062E080E00E947B
:1007A0002C0683EF91E00197F1F700C0000040E0D4
:1007B00062E080E00E942C0683EF91E00197F1F760
:1007C00000C0000040E060E081E00E942C0640E0B4
:1007D00061E081E00E942C0641E062E081E00E943D
:1007E0002C0641E064E081E00E942C0641E062E0DA
:1007F00080E00E942C0683EF91E00197F1F700C0A2
:10080000000040E062E080E00E942C0683EF91E06F
:100810000197F1F700C0000040E060E081E00E9435
:100820002C0640E061E081E00E942C0640E062E09E
:1008300081E00E942C0640E064E081E00E942C06EA
:1008400041E062E080E00E942C0683EF91E0019796
:10085000F1F700C0000040E062E080E00E942C065A
:1008600083EF91E00197F1F700C0000041E060E004
:1008700081E00E942C0640E061E081E00E942C06AD
:1008800040E062E081E00E942C0640E064E081E00C
:100890000E942C0641E062E080E00E942C0683EF7B
:1008A00091E00197F1F700C0000040E062E080E0D5
:1008B0000E942C0683EF91E00197F1F700C0000041
:1008C00040E060E081E00E942C0640E061E081E0D1
:1008D0000E942C0640E062E081E00E942C0640E08D
:1008E00064E081E00E942C0641E062E080E00E942A
:1008F0002C0683EF91E00197F1F700C0000040E083
:1009000062E080E00E942C0683EF91E00197F1F70E
:1009100000C0000041E060E081E00E942C0641E060
:1009200061E081E00E942C0641E062E081E00E94EB
:100930002C0640E064E081E00E942C0641E062E089
:1009400080E00E942C0683EF91E00197F1F700C050
:10095000000040E062E080E00E942C0683EF91E01E
:0A0960000197F1F700C000000895B0
:10096A00EF92FF920F931F93CF93DF938C01D62FB1
:10097A00F42EE22EC62FCC0FCC0FCC0F40E063E052
:10098A0080E00E942C06C4FB442740F960E081E025
:10099A000E942C06C5FB442740F961E081E00E94D1
:1009AA002C0641E062E081E00E942C0640E064E00F
:1009BA0081E00E942C0641E062E080E00E942C0661
:1009CA0089EF90E00197F1F700C0000040E062E093
:1009DA0080E00E942C0689EF90E00197F1F700C0B1
:1009EA00000040E060E081E00E942C0640E061E007
:1009FA0081E00E942C0640E062E081E00E942C0621
:100A0A00C3FB442740F964E081E00E942C0641E0E0
:100A1A0062E080E00E942C0689EF90E00197F1F7EE
:100A2A0000C0000040E062E080E00E942C0689EFEE
:100A3A0090E00197F1F700C00000C0E007C0F8019C
:100A4A00EC0FF11D80810E940C07CF5FC830B8F30C
:100A5A006E2D8F2D0E943B058D2F0E940C07DF9172
:0C0A6A00CF911F910F91FF90EF90089525
:100A7600CF93811103C0C0E8C60F10C0813019F4AE
:100A8600C0ECC60F0BC0823019F4C4E9C60F06C00D
:100A9600833019F4C4EDC60F01C0C0E040E063E046
:100AA60080E00E942C06C4FB442740F960E081E008
:100AB6000E942C06C5FB442740F961E081E00E94B4
:100AC6002C06C6FB442740F962E081E00E942C0612
:100AD60041E064E081E00E942C0641E062E080E0B3
:100AE6000E942C0689EF90E00197F1F700C0000004
:100AF60040E062E080E00E942C0689EF90E00197DA
:100B0600F1F700C000004C2F417060E081E00E94C8
:100B16002C06C1FB442740F961E081E00E942C06C7
:100B2600C2FB442740F962E081E00E942C06C3FB29
:100B3600442740F964E081E00E942C0641E062E02F
:100B460080E00E942C0689EF90E00197F1F700C043
:100B5600000040E062E080E00E942C0689EF90E011
:0C0B66000197F1F700C00000CF91089546
:100B7200683008F06FC0411138C0813091F028F020
:100B82008230D9F0833029F108952AB381E090E0D0
:100B920002C0880F991F6A95E2F7809582238ABB6B
:100BA200089527B381E090E002C0880F991F6A95EB
:100BB200E2F78095822387BB089524B381E090E019
:100BC20002C0880F991F6A95E2F78095822384BB41
:100BD200089521B381E090E002C0880F991F6A95C1
:100BE200E2F78095822381BB0895413099F58130E7
:100BF20089F028F08230C9F0833011F108952AB3C8
:100C020081E090E002C0880F991F6A95E2F7822B7B
:100C12008ABB089527B381E090E002C0880F991F34
:100C22006A95E2F7822B87BB089524B381E090E0B6
:100C320002C0880F991F6A95E2F7822B84BB089540
:100C420021B381E090E002C0880F991F6A95E2F714
:060C5200822B81BB089516
:100C5800683008F06FC0411138C0813091F028F039
:100C68008230D9F0833029F108952BB381E090E0E8
:100C780002C0880F991F6A95E2F7809582238BBB83
:100C8800089528B381E090E002C0880F991F6A9503
:100C9800E2F78095822388BB089525B381E090E030
:100CA80002C0880F991F6A95E2F78095822385BB59
:100CB800089522B381E090E002C0880F991F6A95D9
:100CC800E2F78095822382BB0895413099F58130FF
:100CD80089F028F08230C9F0833011F108952BB3E0
:100CE80081E090E002C0880F991F6A95E2F7822B95
:100CF8008BBB089528B381E090E002C0880F991F4C
:100D08006A95E2F7822B88BB089525B381E090E0CD
:100D180002C0880F991F6A95E2F7822B85BB089558
:100D280022B381E090E002C0880F991F6A95E2F72C
:060D3800822B82BB08952E
:100D3E00CF93C82F40E063E080E00E942C06C4FBF6
:100D4E00442740F960E081E00E942C06C5FB442751
:100D5E0040F961E081E00E942C06C6FB442740F971
:100D6E0062E081E00E942C064C2F441F4427441F52
:100D7E0064E081E00E942C0641E062E080E00E9487
:100D8E002C0689EF90E00197F1F700C0000040E0DB
:100D9E0062E080E00E942C0689EF90E00197F1F767
:100DAE0000C000004C2F417060E081E00E942C06D4
:100DBE00C1FB442740F961E081E00E942C06C2FB92
:100DCE00442740F962E081E00E942C06C3FB4427D1
:100DDE0040F964E081E00E942C0641E062E080E090
:100DEE000E942C0689EF90E00197F1F700C00000F9
:100DFE0040E062E080E00E942C0683EF91E00197D4
:0A0E0E00F1F700C00000CF91089535
:100E1800CF93C82F41E063E080E00E942C06C4FB1A
:100E2800442740F960E081E00E942C06C5FB442776
:100E380040F961E081E00E942C06C6FB442740F996
:100E480062E081E00E942C064C2F441F4427441F77
:100E580064E081E00E942C0641E062E080E00E94AC
:100E68002C0689EF90E00197F1F700C0000040E000
:100E780062E080E00E942C0689EF90E00197F1F78C
:100E880000C000004C2F417060E081E00E942C06F9
:100E9800C1FB442740F961E081E00E942C06C2FBB7
:100EA800442740F962E081E00E942C06C3FB4427F6
:100EB80040F964E081E00E942C0641E062E080E0B5
:100EC8000E942C0689EF90E00197F1F700C000001E
:100ED80040E062E080E00E942C0689EF90E00197F4
:0A0EE800F1F700C00000CF9108955B
:100EF200CF92DF92EF92CF936B01E82EC0E003C056
:100F02000E940C07CF5FAE2DC6018C0F911DA11D53
:100F1200FC018491A7FD80818111F2CFCF91EF90E6
:060F2200DF90CF9008955E
:100F2800EC010E94A4070E94A307CE010E94A50716
:060F3800CE010E94A1079A
:040F3E000C9400000F
:040F42000E945600B3
:020F460008950C
:020F480008950A
:020F4A00089508
:100F4C000E0E050E14040E15000E0E141F050E11B8
:100F5C000E0E05061C04041B0E0E04071C04041BB9
:100F6C000707040F14040B100707041E05041A00CE
:00000001FF
