:100000000C942E000C94D7040C94D7040C94D704B1
:100010000C94D7040C94D7040C94D7040C94D704F4
:100020000C94D7040C94D7040C94D7040C94D704E4
:100030000C94D7040C94D7040C94D7040C94D704D4
:100040000C94D7040C94D7040C94D7040C94D704C4
:100050000C94D704006000780009BC0011241FBE76
:10006000CFE5D8E0DEBFCDBFE4E5F0E040E017C06B
:10007000B591A59135912591059107FD0CC09591FC
:100080008591EF01F92FE82F05900D92A217B30784
:10009000D9F7FE0104C01D92A217B307E1F7EB35B3
:1000A000F40731F70E94A0040C94CC04F894FFCF1D
:1000B00085E49EE10197F1F700C0000041E063E0B4
:1000C00080E00E94ED0141E062E080E00E94ED01ED
:1000D00041E060E081E00E94ED0141E061E081E00B
:1000E0000E94ED0141E062E081E00E94ED0141E00B
:1000F00064E081E00E94ED0140E060E081E00E9468
:10010000600241E061E081E00E94600240E062E064
:1001100081E00E94600240E064E081E00E946002B1
:1001200041E062E080E00E94600283EF91E001978D
:10013000F1F700C0000040E062E080E00E94600251
:1001400083EF91E00197F1F700C0000040E060E02C
:1001500081E00E94600241E061E081E00E94600273
:1001600040E062E081E00E94600240E064E081E003
:100170000E94600241E062E080E00E94600283EF42
:1001800091E00197F1F700C0000040E062E080E0FC
:100190000E94600283EF91E00197F1F700C0000038
:1001A00040E062E081E00E94600241E064E081E0C2
:1001B0000E94600241E062E080E00E94600283EF02
:1001C00091E00197F1F700C0000040E062E080E0BC
:1001D0000E94600283EF91E00197F1F700C00000F8
:1001E00040E060E081E00E94600240E061E081E088
:1001F0000E94600240E062E081E00E94600240E014
:1002000064E081E00E94600241E062E080E00E94E0
:10021000600283EF91E00197F1F700C0000040E039
:1002200062E080E00E94600283EF91E00197F1F7C5
:1002300000C0000040E060E081E00E94600240E019
:1002400061E081E00E94600241E062E081E00E94A2
:10025000600241E064E081E00E94600241E062E00F
:1002600080E00E94600283EF91E00197F1F700C007
:10027000000040E062E080E00E94600283EF91E0D5
:100280000197F1F700C0000040E060E081E00E94CB
:10029000600240E061E081E00E94600240E062E0D4
:1002A00081E00E94600240E064E081E00E94600220
:1002B00041E062E080E00E94600283EF91E00197FC
:1002C000F1F700C0000040E062E080E00E946002C0
:1002D00083EF91E00197F1F700C0000041E060E09A
:1002E00081E00E94600240E061E081E00E946002E3
:1002F00040E062E081E00E94600240E064E081E072
:100300000E94600241E062E080E00E94600283EFB0
:1003100091E00197F1F700C0000040E062E080E06A
:100320000E94600283EF91E00197F1F700C00000A6
:1003300040E060E081E00E94600240E061E081E036
:100340000E94600240E062E081E00E94600240E0C2
:1003500064E081E00E94600241E062E080E00E948F
:10036000600283EF91E00197F1F700C0000040E0E8
:1003700062E080E00E94600283EF91E00197F1F774
:1003800000C0000041E060E081E00E94600241E0C6
:1003900061E081E00E94600241E062E081E00E9451
:1003A000600240E064E081E00E94600241E062E0BF
:1003B00080E00E94600283EF91E00197F1F700C0B6
:1003C000000040E062E080E00E94600283EF91E084
:0A03D0000197F1F700C00000089546
:1003DA00683008F06FC0411138C0813091F028F0C0
:1003EA008230D9F0833029F108952AB381E090E070
:1003FA0002C0880F991F6A95E2F7809582238ABB0B
:10040A00089527B381E090E002C0880F991F6A958A
:10041A00E2F78095822387BB089524B381E090E0B8
:10042A0002C0880F991F6A95E2F78095822384BBE0
:10043A00089521B381E090E002C0880F991F6A9560
:10044A00E2F78095822381BB0895413099F5813086
:10045A0089F028F08230C9F0833011F108952AB367
:10046A0081E090E002C0880F991F6A95E2F7822B1B
:10047A008ABB089527B381E090E002C0880F991FD4
:10048A006A95E2F7822B87BB089524B381E090E056
:10049A0002C0880F991F6A95E2F7822B84BB0895E0
:1004AA0021B381E090E002C0880F991F6A95E2F7B4
:0604BA00822B81BB0895B6
:1004C000683008F06FC0411138C0813091F028F0D9
:1004D0008230D9F0833029F108952BB381E090E088
:1004E00002C0880F991F6A95E2F7809582238BBB23
:1004F000089528B381E090E002C0880F991F6A95A3
:10050000E2F78095822388BB089525B381E090E0CF
:1005100002C0880F991F6A95E2F78095822385BBF8
:10052000089522B381E090E002C0880F991F6A9578
:10053000E2F78095822382BB0895413099F581309E
:1005400089F028F08230C9F0833011F108952BB37F
:1005500081E090E002C0880F991F6A95E2F7822B34
:100560008BBB089528B381E090E002C0880F991FEB
:100570006A95E2F7822B88BB089525B381E090E06D
:1005800002C0880F991F6A95E2F7822B85BB0895F8
:1005900022B381E090E002C0880F991F6A95E2F7CC
:0605A000822B82BB0895CE
:1005A600CF93C82F40E063E080E00E946002C4FB66
:1005B600442740F960E081E00E946002C5FB4427C1
:1005C60040F961E081E00E946002C6FB442740F9E1
:1005D60062E081E00E9460024C2F441F4427441FC2
:1005E60064E081E00E94600241E062E080E00E94F7
:1005F600600289EF90E00197F1F700C0000040E04B
:1006060062E080E00E94600289EF90E00197F1F7D6
:1006160000C000004C2F417060E081E00E94600243
:10062600C1FB442740F961E081E00E946002C2FB01
:10063600442740F962E081E00E946002C3FB442740
:1006460040F964E081E00E94600241E062E080E0FF
:100656000E94600289EF90E00197F1F700C0000068
:1006660040E062E080E00E94600283EF91E0019743
:0A067600F1F700C00000CF910895D5
:10068000CF93C82F41E063E080E00E946002C4FB8A
:10069000442740F960E081E00E946002C5FB4427E6
:1006A00040F961E081E00E946002C6FB442740F906
:1006B00062E081E00E9460024C2F441F4427441FE7
:1006C00064E081E00E94600241E062E080E00E941C
:1006D000600289EF90E00197F1F700C0000040E070
:1006E00062E080E00E94600289EF90E00197F1F7FC
:1006F00000C000004C2F417060E081E00E94600269
:10070000C1FB442740F961E081E00E946002C2FB26
:10071000442740F962E081E00E946002C3FB442765
:1007200040F964E081E00E94600241E062E080E024
:100730000E94600289EF90E00197F1F700C000008D
:1007400040E062E080E00E94600289EF90E0019763
:0A075000F1F700C00000CF910895FA
:10075A00BF92CF92DF92EF92FF920F931F93CF93A4
:10076A00DF930F92CDB7DEB7E12CBB24BA943FC01A
:10077A00CE2CD12CF601EC58FF4F40E0608183E08B
:10078A000E946002F12C28C00F2D10E0F801E059F8
:10079A00FF4FAE014F5F5F4F608182E00E945D04B0
:1007AA008981811118C0F801EE0FFF1FEE0FFF1F9C
:1007BA00E05AFF4FEC0DFD1DB0800AC0AE014F5F3D
:1007CA005F4FF801E059FF4F608182E00E945D04AB
:1007DA008981882399F3F39483E08F15A8F6F601AB
:1007EA00EC58FF4F41E060810E946002E39483E08D
:1007FA008E1508F0BDCF8B2D0F90DF91CF911F91F1
:0E080A000F91FF90EF90DF90CF90BF90089578
:1008180041E067E083E00E94ED0141E066E083E0AB
:100828000E94ED0141E065E083E00E94ED0141E0B6
:1008380063E083E00E94ED0141E067E083E00E940D
:10084800600241E066E083E00E94600241E065E00A
:1008580083E00E94600241E063E083E00E9460025E
:1008680040E065E082E00E94ED0140E064E082E063
:100878000E94ED0140E063E082E00E94ED0140E06B
:1008880062E082E00E94ED0141E065E082E00E94C2
:10089800600241E064E082E00E94600241E063E0BF
:1008A80082E00E94600241E062E082E00E94600211
:0208B8000895A1
:1008BA0041155105D1F16830D0F5813091F028F019
:1008CA008230D9F0833029F134C089B390E002C074
:1008DA00959587956A95E2F78170FA01808380E0A1
:1008EA00089586B390E002C0959587956A95E2F7D8
:1008FA008170FA01808380E0089583B390E002C09A
:10090A00959587956A95E2F78170FA01808380E070
:10091A00089580B390E002C0959587956A95E2F7AD
:10092A008170FA01808380E0089581E0089581E072
:06093A00089580E008951D
:100940000E940C040E9458002FEF81EE94E0215089
:1009500080409040E1F700C0000081E00E94D30297
:100960002FEF81EE94E0215080409040E1F700C0ED
:10097000000080E80E94D3022FEF81EE94E0215026
:1009800080409040E1F700C000000E94AD038F3F1F
:08099000E1F30E944003F9CFDE
:10099800EC010E94DC040E94DB04CE010E94DD040D
:0609A800CE010E94D904FB
:0409AE000C940000A5
:0409B2000E94560049
:0209B6000895A2
:0209B8000895A0
:0209BA0008959E
:1009BC003738392F3435362A3132332D33303D2BFD
:0409CC000504030219
:0409D000070605030E
:00000001FF
